{
  "contractName": "StakingRewardsFactory",
  "abi": [
    {
      "inputs": [
        {
          "internalType": "address",
          "name": "_rewardsToken",
          "type": "address"
        },
        {
          "internalType": "uint256",
          "name": "_stakingRewardsGenesis",
          "type": "uint256"
        }
      ],
      "payable": false,
      "stateMutability": "nonpayable",
      "type": "constructor"
    },
    {
      "anonymous": false,
      "inputs": [
        {
          "indexed": true,
          "internalType": "address",
          "name": "previousOwner",
          "type": "address"
        },
        {
          "indexed": true,
          "internalType": "address",
          "name": "newOwner",
          "type": "address"
        }
      ],
      "name": "OwnershipTransferred",
      "type": "event"
    },
    {
      "constant": true,
      "inputs": [],
      "name": "isOwner",
      "outputs": [
        {
          "internalType": "bool",
          "name": "",
          "type": "bool"
        }
      ],
      "payable": false,
      "stateMutability": "view",
      "type": "function"
    },
    {
      "constant": true,
      "inputs": [],
      "name": "owner",
      "outputs": [
        {
          "internalType": "address",
          "name": "",
          "type": "address"
        }
      ],
      "payable": false,
      "stateMutability": "view",
      "type": "function"
    },
    {
      "constant": false,
      "inputs": [],
      "name": "renounceOwnership",
      "outputs": [],
      "payable": false,
      "stateMutability": "nonpayable",
      "type": "function"
    },
    {
      "constant": true,
      "inputs": [],
      "name": "rewardsToken",
      "outputs": [
        {
          "internalType": "address",
          "name": "",
          "type": "address"
        }
      ],
      "payable": false,
      "stateMutability": "view",
      "type": "function"
    },
    {
      "constant": true,
      "inputs": [],
      "name": "stakingRewardsGenesis",
      "outputs": [
        {
          "internalType": "uint256",
          "name": "",
          "type": "uint256"
        }
      ],
      "payable": false,
      "stateMutability": "view",
      "type": "function"
    },
    {
      "constant": true,
      "inputs": [
        {
          "internalType": "address",
          "name": "",
          "type": "address"
        }
      ],
      "name": "stakingRewardsInfoByStakingToken",
      "outputs": [
        {
          "internalType": "address",
          "name": "stakingRewards",
          "type": "address"
        },
        {
          "internalType": "uint256",
          "name": "rewardAmount",
          "type": "uint256"
        }
      ],
      "payable": false,
      "stateMutability": "view",
      "type": "function"
    },
    {
      "constant": true,
      "inputs": [
        {
          "internalType": "uint256",
          "name": "",
          "type": "uint256"
        }
      ],
      "name": "stakingTokens",
      "outputs": [
        {
          "internalType": "address",
          "name": "",
          "type": "address"
        }
      ],
      "payable": false,
      "stateMutability": "view",
      "type": "function"
    },
    {
      "constant": false,
      "inputs": [
        {
          "internalType": "address",
          "name": "newOwner",
          "type": "address"
        }
      ],
      "name": "transferOwnership",
      "outputs": [],
      "payable": false,
      "stateMutability": "nonpayable",
      "type": "function"
    },
    {
      "constant": false,
      "inputs": [
        {
          "internalType": "address",
          "name": "stakingToken",
          "type": "address"
        },
        {
          "internalType": "uint256",
          "name": "rewardAmount",
          "type": "uint256"
        }
      ],
      "name": "deploy",
      "outputs": [],
      "payable": false,
      "stateMutability": "nonpayable",
      "type": "function"
    },
    {
      "constant": false,
      "inputs": [],
      "name": "notifyRewardAmounts",
      "outputs": [],
      "payable": false,
      "stateMutability": "nonpayable",
      "type": "function"
    },
    {
      "constant": false,
      "inputs": [
        {
          "internalType": "address",
          "name": "stakingToken",
          "type": "address"
        }
      ],
      "name": "notifyRewardAmount",
      "outputs": [],
      "payable": false,
      "stateMutability": "nonpayable",
      "type": "function"
    }
  ],
  "bytecode": "0x608060405234801561001057600080fd5b5060405161349f38038061349f8339818101604052604081101561003357600080fd5b810190808051906020019092919080519060200190929190505050336000806101000a81548173ffffffffffffffffffffffffffffffffffffffff021916908373ffffffffffffffffffffffffffffffffffffffff1602179055506000809054906101000a900473ffffffffffffffffffffffffffffffffffffffff1673ffffffffffffffffffffffffffffffffffffffff16600073ffffffffffffffffffffffffffffffffffffffff167f8be0079c531659141344cd1fd0a4f28419497f9722a3daafe3b4186f6b6457e060405160405180910390a342811015610163576040517f08c379a000000000000000000000000000000000000000000000000000000000815260040180806020018281038252603481526020018061346b6034913960400191505060405180910390fd5b81600160006101000a81548173ffffffffffffffffffffffffffffffffffffffff021916908373ffffffffffffffffffffffffffffffffffffffff1602179055508060028190555050506132af806101bc6000396000f3fe608060405234801561001057600080fd5b50600436106100a95760003560e01c80638da5cb5b116100715780638da5cb5b146102435780638f32d59b1461028d578063a0928c11146102af578063ae741d8d146102cd578063d1af0c7d146102d7578063f2fde38b14610321576100a9565b8063344e5e34146100ae5780634956eaf01461011c5780636cf8caf81461016a578063715018a6146101f557806381e16298146101ff575b600080fd5b6100da600480360360208110156100c457600080fd5b8101908080359060200190929190505050610365565b604051808273ffffffffffffffffffffffffffffffffffffffff1673ffffffffffffffffffffffffffffffffffffffff16815260200191505060405180910390f35b6101686004803603604081101561013257600080fd5b81019080803573ffffffffffffffffffffffffffffffffffffffff169060200190929190803590602001909291905050506103a1565b005b6101ac6004803603602081101561018057600080fd5b81019080803573ffffffffffffffffffffffffffffffffffffffff1690602001909291905050506106a7565b604051808373ffffffffffffffffffffffffffffffffffffffff1673ffffffffffffffffffffffffffffffffffffffff1681526020018281526020019250505060405180910390f35b6101fd6106eb565b005b6102416004803603602081101561021557600080fd5b81019080803573ffffffffffffffffffffffffffffffffffffffff169060200190929190505050610824565b005b61024b610b7e565b604051808273ffffffffffffffffffffffffffffffffffffffff1673ffffffffffffffffffffffffffffffffffffffff16815260200191505060405180910390f35b610295610ba7565b604051808215151515815260200191505060405180910390f35b6102b7610bfe565b6040518082815260200191505060405180910390f35b6102d5610c04565b005b6102df610cc5565b604051808273ffffffffffffffffffffffffffffffffffffffff1673ffffffffffffffffffffffffffffffffffffffff16815260200191505060405180910390f35b6103636004803603602081101561033757600080fd5b81019080803573ffffffffffffffffffffffffffffffffffffffff169060200190929190505050610ceb565b005b6003818154811061037257fe5b906000526020600020016000915054906101000a900473ffffffffffffffffffffffffffffffffffffffff1681565b6103a9610ba7565b61041b576040517f08c379a00000000000000000000000000000000000000000000000000000000081526004018080602001828103825260208152602001807f4f776e61626c653a2063616c6c6572206973206e6f7420746865206f776e657281525060200191505060405180910390fd5b6000600460008473ffffffffffffffffffffffffffffffffffffffff1673ffffffffffffffffffffffffffffffffffffffff1681526020019081526020016000209050600073ffffffffffffffffffffffffffffffffffffffff168160000160009054906101000a900473ffffffffffffffffffffffffffffffffffffffff1673ffffffffffffffffffffffffffffffffffffffff1614610507576040517f08c379a000000000000000000000000000000000000000000000000000000000815260040180806020018281038252602f815260200180613162602f913960400191505060405180910390fd5b30600160009054906101000a900473ffffffffffffffffffffffffffffffffffffffff168460405161053890610eb5565b808473ffffffffffffffffffffffffffffffffffffffff1673ffffffffffffffffffffffffffffffffffffffff1681526020018373ffffffffffffffffffffffffffffffffffffffff1673ffffffffffffffffffffffffffffffffffffffff1681526020018273ffffffffffffffffffffffffffffffffffffffff1673ffffffffffffffffffffffffffffffffffffffff1681526020019350505050604051809103906000f0801580156105f0573d6000803e3d6000fd5b508160000160006101000a81548173ffffffffffffffffffffffffffffffffffffffff021916908373ffffffffffffffffffffffffffffffffffffffff16021790555081816001018190555060038390806001815401808255809150509060018203906000526020600020016000909192909190916101000a81548173ffffffffffffffffffffffffffffffffffffffff021916908373ffffffffffffffffffffffffffffffffffffffff16021790555050505050565b60046020528060005260406000206000915090508060000160009054906101000a900473ffffffffffffffffffffffffffffffffffffffff16908060010154905082565b6106f3610ba7565b610765576040517f08c379a00000000000000000000000000000000000000000000000000000000081526004018080602001828103825260208152602001807f4f776e61626c653a2063616c6c6572206973206e6f7420746865206f776e657281525060200191505060405180910390fd5b600073ffffffffffffffffffffffffffffffffffffffff166000809054906101000a900473ffffffffffffffffffffffffffffffffffffffff1673ffffffffffffffffffffffffffffffffffffffff167f8be0079c531659141344cd1fd0a4f28419497f9722a3daafe3b4186f6b6457e060405160405180910390a360008060006101000a81548173ffffffffffffffffffffffffffffffffffffffff021916908373ffffffffffffffffffffffffffffffffffffffff160217905550565b60025442101561087f576040517f08c379a00000000000000000000000000000000000000000000000000000000081526004018080602001828103825260348152602001806132106034913960400191505060405180910390fd5b6000600460008373ffffffffffffffffffffffffffffffffffffffff1673ffffffffffffffffffffffffffffffffffffffff1681526020019081526020016000209050600073ffffffffffffffffffffffffffffffffffffffff168160000160009054906101000a900473ffffffffffffffffffffffffffffffffffffffff1673ffffffffffffffffffffffffffffffffffffffff16141561096c576040517f08c379a00000000000000000000000000000000000000000000000000000000081526004018080602001828103825260378152602001806132446037913960400191505060405180910390fd5b600081600101541115610b7a5760008160010154905060008260010181905550600160009054906101000a900473ffffffffffffffffffffffffffffffffffffffff1673ffffffffffffffffffffffffffffffffffffffff1663a9059cbb8360000160009054906101000a900473ffffffffffffffffffffffffffffffffffffffff16836040518363ffffffff1660e01b8152600401808373ffffffffffffffffffffffffffffffffffffffff1673ffffffffffffffffffffffffffffffffffffffff16815260200182815260200192505050602060405180830381600087803b158015610a5957600080fd5b505af1158015610a6d573d6000803e3d6000fd5b505050506040513d6020811015610a8357600080fd5b8101908080519060200190929190505050610ae9576040517f08c379a000000000000000000000000000000000000000000000000000000000815260040180806020018281038252603a8152602001806131d6603a913960400191505060405180910390fd5b8160000160009054906101000a900473ffffffffffffffffffffffffffffffffffffffff1673ffffffffffffffffffffffffffffffffffffffff16633c6b16ab826040518263ffffffff1660e01b815260040180828152602001915050600060405180830381600087803b158015610b6057600080fd5b505af1158015610b74573d6000803e3d6000fd5b50505050505b5050565b60008060009054906101000a900473ffffffffffffffffffffffffffffffffffffffff16905090565b60008060009054906101000a900473ffffffffffffffffffffffffffffffffffffffff1673ffffffffffffffffffffffffffffffffffffffff163373ffffffffffffffffffffffffffffffffffffffff1614905090565b60025481565b600060038054905011610c62576040517f08c379a00000000000000000000000000000000000000000000000000000000081526004018080602001828103825260458152602001806131916045913960600191505060405180910390fd5b60008090505b600380549050811015610cc257610cb560038281548110610c8557fe5b9060005260206000200160009054906101000a900473ffffffffffffffffffffffffffffffffffffffff16610824565b8080600101915050610c68565b50565b600160009054906101000a900473ffffffffffffffffffffffffffffffffffffffff1681565b610cf3610ba7565b610d65576040517f08c379a00000000000000000000000000000000000000000000000000000000081526004018080602001828103825260208152602001807f4f776e61626c653a2063616c6c6572206973206e6f7420746865206f776e657281525060200191505060405180910390fd5b610d6e81610d71565b50565b600073ffffffffffffffffffffffffffffffffffffffff168173ffffffffffffffffffffffffffffffffffffffff161415610df7576040517f08c379a000000000000000000000000000000000000000000000000000000000815260040180806020018281038252602681526020018061313c6026913960400191505060405180910390fd5b8073ffffffffffffffffffffffffffffffffffffffff166000809054906101000a900473ffffffffffffffffffffffffffffffffffffffff1673ffffffffffffffffffffffffffffffffffffffff167f8be0079c531659141344cd1fd0a4f28419497f9722a3daafe3b4186f6b6457e060405160405180910390a3806000806101000a81548173ffffffffffffffffffffffffffffffffffffffff021916908373ffffffffffffffffffffffffffffffffffffffff16021790555050565b61227980610ec38339019056fe6080604052600060045560006005556212750060065534801561002157600080fd5b506040516122793803806122798339818101604052606081101561004457600080fd5b810190808051906020019092919080519060200190929190805190602001909291905050506001808190555081600260006101000a81548173ffffffffffffffffffffffffffffffffffffffff021916908373ffffffffffffffffffffffffffffffffffffffff16021790555080600360006101000a81548173ffffffffffffffffffffffffffffffffffffffff021916908373ffffffffffffffffffffffffffffffffffffffff160217905550826000806101000a81548173ffffffffffffffffffffffffffffffffffffffff021916908373ffffffffffffffffffffffffffffffffffffffff160217905550505050612135806101446000396000f3fe608060405234801561001057600080fd5b50600436106101415760003560e01c80637b0a47ee116100b8578063cd3daf9d1161007c578063cd3daf9d14610482578063d1af0c7d146104a0578063df136d65146104ea578063e9fad8ee14610508578063ebe2b12b14610512578063ecd9ba821461053057610141565b80637b0a47ee146103a257806380faa57d146103c05780638b876347146103de578063a694fc3a14610436578063c8f33c911461046457610141565b8063386a95251161010a578063386a9525146102605780633c6b16ab1461027e5780633d18b912146102ac5780633fc6df6e146102b657806370a082311461030057806372f702f31461035857610141565b80628cc262146101465780630700037d1461019e57806318160ddd146101f65780631c1f78eb146102145780632e1a7d4d14610232575b600080fd5b6101886004803603602081101561015c57600080fd5b81019080803573ffffffffffffffffffffffffffffffffffffffff169060200190929190505050610589565b6040518082815260200191505060405180910390f35b6101e0600480360360208110156101b457600080fd5b81019080803573ffffffffffffffffffffffffffffffffffffffff1690602001909291905050506106a7565b6040518082815260200191505060405180910390f35b6101fe6106bf565b6040518082815260200191505060405180910390f35b61021c6106c9565b6040518082815260200191505060405180910390f35b61025e6004803603602081101561024857600080fd5b81019080803590602001909291905050506106e7565b005b610268610a1f565b6040518082815260200191505060405180910390f35b6102aa6004803603602081101561029457600080fd5b8101908080359060200190929190505050610a25565b005b6102b4610e02565b005b6102be6110a7565b604051808273ffffffffffffffffffffffffffffffffffffffff1673ffffffffffffffffffffffffffffffffffffffff16815260200191505060405180910390f35b6103426004803603602081101561031657600080fd5b81019080803573ffffffffffffffffffffffffffffffffffffffff1690602001909291905050506110cc565b6040518082815260200191505060405180910390f35b610360611115565b604051808273ffffffffffffffffffffffffffffffffffffffff1673ffffffffffffffffffffffffffffffffffffffff16815260200191505060405180910390f35b6103aa61113b565b6040518082815260200191505060405180910390f35b6103c8611141565b6040518082815260200191505060405180910390f35b610420600480360360208110156103f457600080fd5b81019080803573ffffffffffffffffffffffffffffffffffffffff169060200190929190505050611154565b6040518082815260200191505060405180910390f35b6104626004803603602081101561044c57600080fd5b810190808035906020019092919050505061116c565b005b61046c6114a6565b6040518082815260200191505060405180910390f35b61048a6114ac565b6040518082815260200191505060405180910390f35b6104a861153a565b604051808273ffffffffffffffffffffffffffffffffffffffff1673ffffffffffffffffffffffffffffffffffffffff16815260200191505060405180910390f35b6104f2611560565b6040518082815260200191505060405180910390f35b610510611566565b005b61051a6115b8565b6040518082815260200191505060405180910390f35b610587600480360360a081101561054657600080fd5b810190808035906020019092919080359060200190929190803560ff16906020019092919080359060200190929190803590602001909291905050506115be565b005b60006106a0600a60008473ffffffffffffffffffffffffffffffffffffffff1673ffffffffffffffffffffffffffffffffffffffff16815260200190815260200160002054610692670de0b6b3a7640000610684610636600960008973ffffffffffffffffffffffffffffffffffffffff1673ffffffffffffffffffffffffffffffffffffffff168152602001908152602001600020546106286114ac565b611a1790919063ffffffff16565b600c60008973ffffffffffffffffffffffffffffffffffffffff1673ffffffffffffffffffffffffffffffffffffffff16815260200190815260200160002054611aa090919063ffffffff16565b611b2690919063ffffffff16565b611bb590919063ffffffff16565b9050919050565b600a6020528060005260406000206000915090505481565b6000600b54905090565b60006106e2600654600554611aa090919063ffffffff16565b905090565b6001806000828254019250508190555060006001549050336107076114ac565b600881905550610715611141565b600781905550600073ffffffffffffffffffffffffffffffffffffffff168173ffffffffffffffffffffffffffffffffffffffff16146107e25761075881610589565b600a60008373ffffffffffffffffffffffffffffffffffffffff1673ffffffffffffffffffffffffffffffffffffffff16815260200190815260200160002081905550600854600960008373ffffffffffffffffffffffffffffffffffffffff1673ffffffffffffffffffffffffffffffffffffffff168152602001908152602001600020819055505b60008311610858576040517f08c379a00000000000000000000000000000000000000000000000000000000081526004018080602001828103825260118152602001807f43616e6e6f74207769746864726177203000000000000000000000000000000081525060200191505060405180910390fd5b61086d83600b54611a1790919063ffffffff16565b600b819055506108c583600c60003373ffffffffffffffffffffffffffffffffffffffff1673ffffffffffffffffffffffffffffffffffffffff16815260200190815260200160002054611a1790919063ffffffff16565b600c60003373ffffffffffffffffffffffffffffffffffffffff1673ffffffffffffffffffffffffffffffffffffffff168152602001908152602001600020819055506109553384600360009054906101000a900473ffffffffffffffffffffffffffffffffffffffff1673ffffffffffffffffffffffffffffffffffffffff16611c3d9092919063ffffffff16565b3373ffffffffffffffffffffffffffffffffffffffff167f7084f5476618d8e60b11ef0d7d3f06914655adb8793e28ff7f018d4c76d505d5846040518082815260200191505060405180910390a2506001548114610a1b576040517f08c379a000000000000000000000000000000000000000000000000000000000815260040180806020018281038252601f8152602001807f5265656e7472616e637947756172643a207265656e7472616e742063616c6c0081525060200191505060405180910390fd5b5050565b60065481565b6000809054906101000a900473ffffffffffffffffffffffffffffffffffffffff1673ffffffffffffffffffffffffffffffffffffffff163373ffffffffffffffffffffffffffffffffffffffff1614610aca576040517f08c379a000000000000000000000000000000000000000000000000000000000815260040180806020018281038252602a8152602001806120ad602a913960400191505060405180910390fd5b6000610ad46114ac565b600881905550610ae2611141565b600781905550600073ffffffffffffffffffffffffffffffffffffffff168173ffffffffffffffffffffffffffffffffffffffff1614610baf57610b2581610589565b600a60008373ffffffffffffffffffffffffffffffffffffffff1673ffffffffffffffffffffffffffffffffffffffff16815260200190815260200160002081905550600854600960008373ffffffffffffffffffffffffffffffffffffffff1673ffffffffffffffffffffffffffffffffffffffff168152602001908152602001600020819055505b6004544210610bd857610bcd60065483611b2690919063ffffffff16565b600581905550610c3a565b6000610bef42600454611a1790919063ffffffff16565b90506000610c0860055483611aa090919063ffffffff16565b9050610c31600654610c238387611bb590919063ffffffff16565b611b2690919063ffffffff16565b60058190555050505b6000600260009054906101000a900473ffffffffffffffffffffffffffffffffffffffff1673ffffffffffffffffffffffffffffffffffffffff166370a08231306040518263ffffffff1660e01b8152600401808273ffffffffffffffffffffffffffffffffffffffff1673ffffffffffffffffffffffffffffffffffffffff16815260200191505060206040518083038186803b158015610cdb57600080fd5b505afa158015610cef573d6000803e3d6000fd5b505050506040513d6020811015610d0557600080fd5b81019080805190602001909291905050509050610d2d60065482611b2690919063ffffffff16565b6005541115610da4576040517f08c379a00000000000000000000000000000000000000000000000000000000081526004018080602001828103825260188152602001807f50726f76696465642072657761726420746f6f2068696768000000000000000081525060200191505060405180910390fd5b42600781905550610dc060065442611bb590919063ffffffff16565b6004819055507fde88a922e0d3b88b24e9623efeb464919c6bf9f66857a65e2bfcf2ce87a9433d836040518082815260200191505060405180910390a1505050565b600180600082825401925050819055506000600154905033610e226114ac565b600881905550610e30611141565b600781905550600073ffffffffffffffffffffffffffffffffffffffff168173ffffffffffffffffffffffffffffffffffffffff1614610efd57610e7381610589565b600a60008373ffffffffffffffffffffffffffffffffffffffff1673ffffffffffffffffffffffffffffffffffffffff16815260200190815260200160002081905550600854600960008373ffffffffffffffffffffffffffffffffffffffff1673ffffffffffffffffffffffffffffffffffffffff168152602001908152602001600020819055505b6000600a60003373ffffffffffffffffffffffffffffffffffffffff1673ffffffffffffffffffffffffffffffffffffffff168152602001908152602001600020549050600081111561102b576000600a60003373ffffffffffffffffffffffffffffffffffffffff1673ffffffffffffffffffffffffffffffffffffffff16815260200190815260200160002081905550610fdc3382600260009054906101000a900473ffffffffffffffffffffffffffffffffffffffff1673ffffffffffffffffffffffffffffffffffffffff16611c3d9092919063ffffffff16565b3373ffffffffffffffffffffffffffffffffffffffff167fe2403640ba68fed3a2f88b7557551d1993f84b99bb10ff833f0cf8db0c5e0486826040518082815260200191505060405180910390a25b505060015481146110a4576040517f08c379a000000000000000000000000000000000000000000000000000000000815260040180806020018281038252601f8152602001807f5265656e7472616e637947756172643a207265656e7472616e742063616c6c0081525060200191505060405180910390fd5b50565b6000809054906101000a900473ffffffffffffffffffffffffffffffffffffffff1681565b6000600c60008373ffffffffffffffffffffffffffffffffffffffff1673ffffffffffffffffffffffffffffffffffffffff168152602001908152602001600020549050919050565b600360009054906101000a900473ffffffffffffffffffffffffffffffffffffffff1681565b60055481565b600061114f42600454611d0e565b905090565b60096020528060005260406000206000915090505481565b60018060008282540192505081905550600060015490503361118c6114ac565b60088190555061119a611141565b600781905550600073ffffffffffffffffffffffffffffffffffffffff168173ffffffffffffffffffffffffffffffffffffffff1614611267576111dd81610589565b600a60008373ffffffffffffffffffffffffffffffffffffffff1673ffffffffffffffffffffffffffffffffffffffff16815260200190815260200160002081905550600854600960008373ffffffffffffffffffffffffffffffffffffffff1673ffffffffffffffffffffffffffffffffffffffff168152602001908152602001600020819055505b600083116112dd576040517f08c379a000000000000000000000000000000000000000000000000000000000815260040180806020018281038252600e8152602001807f43616e6e6f74207374616b65203000000000000000000000000000000000000081525060200191505060405180910390fd5b6112f283600b54611bb590919063ffffffff16565b600b8190555061134a83600c60003373ffffffffffffffffffffffffffffffffffffffff1673ffffffffffffffffffffffffffffffffffffffff16815260200190815260200160002054611bb590919063ffffffff16565b600c60003373ffffffffffffffffffffffffffffffffffffffff1673ffffffffffffffffffffffffffffffffffffffff168152602001908152602001600020819055506113dc333085600360009054906101000a900473ffffffffffffffffffffffffffffffffffffffff1673ffffffffffffffffffffffffffffffffffffffff16611d27909392919063ffffffff16565b3373ffffffffffffffffffffffffffffffffffffffff167f9e71bc8eea02a63969f509818f2dafb9254532904319f9dbda79b67bd34a5f3d846040518082815260200191505060405180910390a25060015481146114a2576040517f08c379a000000000000000000000000000000000000000000000000000000000815260040180806020018281038252601f8152602001807f5265656e7472616e637947756172643a207265656e7472616e742063616c6c0081525060200191505060405180910390fd5b5050565b60075481565b600080600b5414156114c2576008549050611537565b611534611523600b54611515670de0b6b3a76400006115076005546114f96007546114eb611141565b611a1790919063ffffffff16565b611aa090919063ffffffff16565b611aa090919063ffffffff16565b611b2690919063ffffffff16565b600854611bb590919063ffffffff16565b90505b90565b600260009054906101000a900473ffffffffffffffffffffffffffffffffffffffff1681565b60085481565b6115ae600c60003373ffffffffffffffffffffffffffffffffffffffff1673ffffffffffffffffffffffffffffffffffffffff168152602001908152602001600020546106e7565b6115b6610e02565b565b60045481565b6001806000828254019250508190555060006001549050336115de6114ac565b6008819055506115ec611141565b600781905550600073ffffffffffffffffffffffffffffffffffffffff168173ffffffffffffffffffffffffffffffffffffffff16146116b95761162f81610589565b600a60008373ffffffffffffffffffffffffffffffffffffffff1673ffffffffffffffffffffffffffffffffffffffff16815260200190815260200160002081905550600854600960008373ffffffffffffffffffffffffffffffffffffffff1673ffffffffffffffffffffffffffffffffffffffff168152602001908152602001600020819055505b6000871161172f576040517f08c379a000000000000000000000000000000000000000000000000000000000815260040180806020018281038252600e8152602001807f43616e6e6f74207374616b65203000000000000000000000000000000000000081525060200191505060405180910390fd5b61174487600b54611bb590919063ffffffff16565b600b8190555061179c87600c60003373ffffffffffffffffffffffffffffffffffffffff1673ffffffffffffffffffffffffffffffffffffffff16815260200190815260200160002054611bb590919063ffffffff16565b600c60003373ffffffffffffffffffffffffffffffffffffffff1673ffffffffffffffffffffffffffffffffffffffff16815260200190815260200160002081905550600360009054906101000a900473ffffffffffffffffffffffffffffffffffffffff1673ffffffffffffffffffffffffffffffffffffffff1663d505accf33308a8a8a8a8a6040518863ffffffff1660e01b8152600401808873ffffffffffffffffffffffffffffffffffffffff1673ffffffffffffffffffffffffffffffffffffffff1681526020018773ffffffffffffffffffffffffffffffffffffffff1673ffffffffffffffffffffffffffffffffffffffff1681526020018681526020018581526020018460ff1660ff168152602001838152602001828152602001975050505050505050600060405180830381600087803b1580156118e257600080fd5b505af11580156118f6573d6000803e3d6000fd5b50505050611949333089600360009054906101000a900473ffffffffffffffffffffffffffffffffffffffff1673ffffffffffffffffffffffffffffffffffffffff16611d27909392919063ffffffff16565b3373ffffffffffffffffffffffffffffffffffffffff167f9e71bc8eea02a63969f509818f2dafb9254532904319f9dbda79b67bd34a5f3d886040518082815260200191505060405180910390a2506001548114611a0f576040517f08c379a000000000000000000000000000000000000000000000000000000000815260040180806020018281038252601f8152602001807f5265656e7472616e637947756172643a207265656e7472616e742063616c6c0081525060200191505060405180910390fd5b505050505050565b600082821115611a8f576040517f08c379a000000000000000000000000000000000000000000000000000000000815260040180806020018281038252601e8152602001807f536166654d6174683a207375627472616374696f6e206f766572666c6f77000081525060200191505060405180910390fd5b600082840390508091505092915050565b600080831415611ab35760009050611b20565b6000828402905082848281611ac457fe5b0414611b1b576040517f08c379a000000000000000000000000000000000000000000000000000000000815260040180806020018281038252602181526020018061208c6021913960400191505060405180910390fd5b809150505b92915050565b6000808211611b9d576040517f08c379a000000000000000000000000000000000000000000000000000000000815260040180806020018281038252601a8152602001807f536166654d6174683a206469766973696f6e206279207a65726f00000000000081525060200191505060405180910390fd5b6000828481611ba857fe5b0490508091505092915050565b600080828401905083811015611c33576040517f08c379a000000000000000000000000000000000000000000000000000000000815260040180806020018281038252601b8152602001807f536166654d6174683a206164646974696f6e206f766572666c6f77000000000081525060200191505060405180910390fd5b8091505092915050565b611d09838473ffffffffffffffffffffffffffffffffffffffff1663a9059cbb905060e01b8484604051602401808373ffffffffffffffffffffffffffffffffffffffff1673ffffffffffffffffffffffffffffffffffffffff16815260200182815260200192505050604051602081830303815290604052907bffffffffffffffffffffffffffffffffffffffffffffffffffffffff19166020820180517bffffffffffffffffffffffffffffffffffffffffffffffffffffffff8381831617835250505050611e2d565b505050565b6000818310611d1d5781611d1f565b825b905092915050565b611e27848573ffffffffffffffffffffffffffffffffffffffff166323b872dd905060e01b858585604051602401808473ffffffffffffffffffffffffffffffffffffffff1673ffffffffffffffffffffffffffffffffffffffff1681526020018373ffffffffffffffffffffffffffffffffffffffff1673ffffffffffffffffffffffffffffffffffffffff1681526020018281526020019350505050604051602081830303815290604052907bffffffffffffffffffffffffffffffffffffffffffffffffffffffff19166020820180517bffffffffffffffffffffffffffffffffffffffffffffffffffffffff8381831617835250505050611e2d565b50505050565b611e4c8273ffffffffffffffffffffffffffffffffffffffff16612078565b611ebe576040517f08c379a000000000000000000000000000000000000000000000000000000000815260040180806020018281038252601f8152602001807f5361666545524332303a2063616c6c20746f206e6f6e2d636f6e74726163740081525060200191505060405180910390fd5b600060608373ffffffffffffffffffffffffffffffffffffffff16836040518082805190602001908083835b60208310611f0d5780518252602082019150602081019050602083039250611eea565b6001836020036101000a0380198251168184511680821785525050505050509050019150506000604051808303816000865af19150503d8060008114611f6f576040519150601f19603f3d011682016040523d82523d6000602084013e611f74565b606091505b509150915081611fec576040517f08c379a00000000000000000000000000000000000000000000000000000000081526004018080602001828103825260208152602001807f5361666545524332303a206c6f772d6c6576656c2063616c6c206661696c656481525060200191505060405180910390fd5b6000815111156120725780806020019051602081101561200b57600080fd5b8101908080519060200190929190505050612071576040517f08c379a000000000000000000000000000000000000000000000000000000000815260040180806020018281038252602a8152602001806120d7602a913960400191505060405180910390fd5b5b50505050565b600080823b90506000811191505091905056fe536166654d6174683a206d756c7469706c69636174696f6e206f766572666c6f7743616c6c6572206973206e6f742052657761726473446973747269627574696f6e20636f6e74726163745361666545524332303a204552433230206f7065726174696f6e20646964206e6f742073756363656564a265627a7a7231582082f23d93e025188cb8ecd0b3a5a8d3fbc309b31e1bd430126843b56c51a6e21264736f6c634300051100324f776e61626c653a206e6577206f776e657220697320746865207a65726f20616464726573735374616b696e6752657761726473466163746f72793a3a6465706c6f793a20616c7265616479206465706c6f7965645374616b696e6752657761726473466163746f72793a3a6e6f74696679526577617264416d6f756e74733a2063616c6c6564206265666f726520616e79206465706c6f79735374616b696e6752657761726473466163746f72793a3a6e6f74696679526577617264416d6f756e743a207472616e73666572206661696c65645374616b696e6752657761726473466163746f72793a3a6e6f74696679526577617264416d6f756e743a206e6f742072656164795374616b696e6752657761726473466163746f72793a3a6e6f74696679526577617264416d6f756e743a206e6f74206465706c6f796564a265627a7a72315820532185a4f98e7bd8ce27dbf96c7a7806b137cea9614f0faa3a9ca3ecafd0488a64736f6c634300051100325374616b696e6752657761726473466163746f72793a3a636f6e7374727563746f723a2067656e6573697320746f6f20736f6f6e",
  "source": "// SPDX-License-Identifier: MIT\r\n\r\npragma solidity ^0.5.16;\r\n\r\n/**\r\n * @dev Interface of the ERC20 standard as defined in the EIP. Does not include\r\n * the optional functions; to access them see `ERC20Detailed`.\r\n */\r\ninterface IERC20 {\r\n    /**\r\n     * @dev Returns the amount of tokens in existence.\r\n     */\r\n    function totalSupply() external view returns (uint256);\r\n\r\n    /**\r\n     * @dev Returns the amount of tokens owned by `account`.\r\n     */\r\n    function balanceOf(address account) external view returns (uint256);\r\n\r\n    /**\r\n     * @dev Moves `amount` tokens from the caller's account to `recipient`.\r\n     *\r\n     * Returns a boolean value indicating whether the operation succeeded.\r\n     *\r\n     * Emits a `Transfer` event.\r\n     */\r\n    function transfer(address recipient, uint256 amount) external returns (bool);\r\n\r\n    /**\r\n     * @dev Returns the remaining number of tokens that `spender` will be\r\n     * allowed to spend on behalf of `owner` through `transferFrom`. This is\r\n     * zero by default.\r\n     *\r\n     * This value changes when `approve` or `transferFrom` are called.\r\n     */\r\n    function allowance(address owner, address spender) external view returns (uint256);\r\n\r\n    /**\r\n     * @dev Sets `amount` as the allowance of `spender` over the caller's tokens.\r\n     *\r\n     * Returns a boolean value indicating whether the operation succeeded.\r\n     *\r\n     * > Beware that changing an allowance with this method brings the risk\r\n     * that someone may use both the old and the new allowance by unfortunate\r\n     * transaction ordering. One possible solution to mitigate this race\r\n     * condition is to first reduce the spender's allowance to 0 and set the\r\n     * desired value afterwards:\r\n     * https://github.com/ethereum/EIPs/issues/20#issuecomment-263524729\r\n     *\r\n     * Emits an `Approval` event.\r\n     */\r\n    function approve(address spender, uint256 amount) external returns (bool);\r\n\r\n    /**\r\n     * @dev Moves `amount` tokens from `sender` to `recipient` using the\r\n     * allowance mechanism. `amount` is then deducted from the caller's\r\n     * allowance.\r\n     *\r\n     * Returns a boolean value indicating whether the operation succeeded.\r\n     *\r\n     * Emits a `Transfer` event.\r\n     */\r\n    function transferFrom(address sender, address recipient, uint256 amount) external returns (bool);\r\n\r\n    /**\r\n     * @dev Emitted when `value` tokens are moved from one account (`from`) to\r\n     * another (`to`).\r\n     *\r\n     * Note that `value` may be zero.\r\n     */\r\n    event Transfer(address indexed from, address indexed to, uint256 value);\r\n\r\n    /**\r\n     * @dev Emitted when the allowance of a `spender` for an `owner` is set by\r\n     * a call to `approve`. `value` is the new allowance.\r\n     */\r\n    event Approval(address indexed owner, address indexed spender, uint256 value);\r\n}\r\n\r\n/**\r\n * @dev Contract module which provides a basic access control mechanism, where\r\n * there is an account (an owner) that can be granted exclusive access to\r\n * specific functions.\r\n *\r\n * This module is used through inheritance. It will make available the modifier\r\n * `onlyOwner`, which can be aplied to your functions to restrict their use to\r\n * the owner.\r\n */\r\ncontract Ownable {\r\n    address private _owner;\r\n\r\n    event OwnershipTransferred(address indexed previousOwner, address indexed newOwner);\r\n\r\n    /**\r\n     * @dev Initializes the contract setting the deployer as the initial owner.\r\n     */\r\n    constructor () internal {\r\n        _owner = msg.sender;\r\n        emit OwnershipTransferred(address(0), _owner);\r\n    }\r\n\r\n    /**\r\n     * @dev Returns the address of the current owner.\r\n     */\r\n    function owner() public view returns (address) {\r\n        return _owner;\r\n    }\r\n\r\n    /**\r\n     * @dev Throws if called by any account other than the owner.\r\n     */\r\n    modifier onlyOwner() {\r\n        require(isOwner(), \"Ownable: caller is not the owner\");\r\n        _;\r\n    }\r\n\r\n    /**\r\n     * @dev Returns true if the caller is the current owner.\r\n     */\r\n    function isOwner() public view returns (bool) {\r\n        return msg.sender == _owner;\r\n    }\r\n\r\n    /**\r\n     * @dev Leaves the contract without owner. It will not be possible to call\r\n     * `onlyOwner` functions anymore. Can only be called by the current owner.\r\n     *\r\n     * > Note: Renouncing ownership will leave the contract without an owner,\r\n     * thereby removing any functionality that is only available to the owner.\r\n     */\r\n    function renounceOwnership() public onlyOwner {\r\n        emit OwnershipTransferred(_owner, address(0));\r\n        _owner = address(0);\r\n    }\r\n\r\n    /**\r\n     * @dev Transfers ownership of the contract to a new account (`newOwner`).\r\n     * Can only be called by the current owner.\r\n     */\r\n    function transferOwnership(address newOwner) public onlyOwner {\r\n        _transferOwnership(newOwner);\r\n    }\r\n\r\n    /**\r\n     * @dev Transfers ownership of the contract to a new account (`newOwner`).\r\n     */\r\n    function _transferOwnership(address newOwner) internal {\r\n        require(newOwner != address(0), \"Ownable: new owner is the zero address\");\r\n        emit OwnershipTransferred(_owner, newOwner);\r\n        _owner = newOwner;\r\n    }\r\n}\r\n\r\n/**\r\n * @dev Wrappers over Solidity's arithmetic operations with added overflow\r\n * checks.\r\n *\r\n * Arithmetic operations in Solidity wrap on overflow. This can easily result\r\n * in bugs, because programmers usually assume that an overflow raises an\r\n * error, which is the standard behavior in high level programming languages.\r\n * `SafeMath` restores this intuition by reverting the transaction when an\r\n * operation overflows.\r\n *\r\n * Using this library instead of the unchecked operations eliminates an entire\r\n * class of bugs, so it's recommended to use it always.\r\n */\r\nlibrary SafeMath {\r\n    /**\r\n     * @dev Returns the addition of two unsigned integers, reverting on\r\n     * overflow.\r\n     *\r\n     * Counterpart to Solidity's `+` operator.\r\n     *\r\n     * Requirements:\r\n     * - Addition cannot overflow.\r\n     */\r\n    function add(uint256 a, uint256 b) internal pure returns (uint256) {\r\n        uint256 c = a + b;\r\n        require(c >= a, \"SafeMath: addition overflow\");\r\n\r\n        return c;\r\n    }\r\n\r\n    /**\r\n     * @dev Returns the subtraction of two unsigned integers, reverting on\r\n     * overflow (when the result is negative).\r\n     *\r\n     * Counterpart to Solidity's `-` operator.\r\n     *\r\n     * Requirements:\r\n     * - Subtraction cannot overflow.\r\n     */\r\n    function sub(uint256 a, uint256 b) internal pure returns (uint256) {\r\n        require(b <= a, \"SafeMath: subtraction overflow\");\r\n        uint256 c = a - b;\r\n\r\n        return c;\r\n    }\r\n\r\n    /**\r\n     * @dev Returns the multiplication of two unsigned integers, reverting on\r\n     * overflow.\r\n     *\r\n     * Counterpart to Solidity's `*` operator.\r\n     *\r\n     * Requirements:\r\n     * - Multiplication cannot overflow.\r\n     */\r\n    function mul(uint256 a, uint256 b) internal pure returns (uint256) {\r\n        // Gas optimization: this is cheaper than requiring 'a' not being zero, but the\r\n        // benefit is lost if 'b' is also tested.\r\n        // See: https://github.com/OpenZeppelin/openzeppelin-solidity/pull/522\r\n        if (a == 0) {\r\n            return 0;\r\n        }\r\n\r\n        uint256 c = a * b;\r\n        require(c / a == b, \"SafeMath: multiplication overflow\");\r\n\r\n        return c;\r\n    }\r\n\r\n    /**\r\n     * @dev Returns the integer division of two unsigned integers. Reverts on\r\n     * division by zero. The result is rounded towards zero.\r\n     *\r\n     * Counterpart to Solidity's `/` operator. Note: this function uses a\r\n     * `revert` opcode (which leaves remaining gas untouched) while Solidity\r\n     * uses an invalid opcode to revert (consuming all remaining gas).\r\n     *\r\n     * Requirements:\r\n     * - The divisor cannot be zero.\r\n     */\r\n    function div(uint256 a, uint256 b) internal pure returns (uint256) {\r\n        // Solidity only automatically asserts when dividing by 0\r\n        require(b > 0, \"SafeMath: division by zero\");\r\n        uint256 c = a / b;\r\n        // assert(a == b * c + a % b); // There is no case in which this doesn't hold\r\n\r\n        return c;\r\n    }\r\n\r\n    /**\r\n     * @dev Returns the remainder of dividing two unsigned integers. (unsigned integer modulo),\r\n     * Reverts when dividing by zero.\r\n     *\r\n     * Counterpart to Solidity's `%` operator. This function uses a `revert`\r\n     * opcode (which leaves remaining gas untouched) while Solidity uses an\r\n     * invalid opcode to revert (consuming all remaining gas).\r\n     *\r\n     * Requirements:\r\n     * - The divisor cannot be zero.\r\n     */\r\n    function mod(uint256 a, uint256 b) internal pure returns (uint256) {\r\n        require(b != 0, \"SafeMath: modulo by zero\");\r\n        return a % b;\r\n    }\r\n}\r\n\r\n/**\r\n * @dev Standard math utilities missing in the Solidity language.\r\n */\r\nlibrary Math {\r\n    /**\r\n     * @dev Returns the largest of two numbers.\r\n     */\r\n    function max(uint256 a, uint256 b) internal pure returns (uint256) {\r\n        return a >= b ? a : b;\r\n    }\r\n\r\n    /**\r\n     * @dev Returns the smallest of two numbers.\r\n     */\r\n    function min(uint256 a, uint256 b) internal pure returns (uint256) {\r\n        return a < b ? a : b;\r\n    }\r\n\r\n    /**\r\n     * @dev Returns the average of two numbers. The result is rounded towards\r\n     * zero.\r\n     */\r\n    function average(uint256 a, uint256 b) internal pure returns (uint256) {\r\n        // (a + b) / 2 can overflow, so we distribute\r\n        return (a / 2) + (b / 2) + ((a % 2 + b % 2) / 2);\r\n    }\r\n}\r\n\r\n/**\r\n * @dev Optional functions from the ERC20 standard.\r\n */\r\ncontract ERC20Detailed is IERC20 {\r\n    string private _name;\r\n    string private _symbol;\r\n    uint8 private _decimals;\r\n\r\n    /**\r\n     * @dev Sets the values for `name`, `symbol`, and `decimals`. All three of\r\n     * these values are immutable: they can only be set once during\r\n     * construction.\r\n     */\r\n    constructor (string memory name, string memory symbol, uint8 decimals) public {\r\n        _name = name;\r\n        _symbol = symbol;\r\n        _decimals = decimals;\r\n    }\r\n\r\n    /**\r\n     * @dev Returns the name of the token.\r\n     */\r\n    function name() public view returns (string memory) {\r\n        return _name;\r\n    }\r\n\r\n    /**\r\n     * @dev Returns the symbol of the token, usually a shorter version of the\r\n     * name.\r\n     */\r\n    function symbol() public view returns (string memory) {\r\n        return _symbol;\r\n    }\r\n\r\n    /**\r\n     * @dev Returns the number of decimals used to get its user representation.\r\n     * For example, if `decimals` equals `2`, a balance of `505` tokens should\r\n     * be displayed to a user as `5,05` (`505 / 10 ** 2`).\r\n     *\r\n     * Tokens usually opt for a value of 18, imitating the relationship between\r\n     * Ether and Wei.\r\n     *\r\n     * > Note that this information is only used for _display_ purposes: it in\r\n     * no way affects any of the arithmetic of the contract, including\r\n     * `IERC20.balanceOf` and `IERC20.transfer`.\r\n     */\r\n    function decimals() public view returns (uint8) {\r\n        return _decimals;\r\n    }\r\n}\r\n\r\n/**\r\n * @dev Collection of functions related to the address type,\r\n */\r\nlibrary Address {\r\n    /**\r\n     * @dev Returns true if `account` is a contract.\r\n     *\r\n     * This test is non-exhaustive, and there may be false-negatives: during the\r\n     * execution of a contract's constructor, its address will be reported as\r\n     * not containing a contract.\r\n     *\r\n     * > It is unsafe to assume that an address for which this function returns\r\n     * false is an externally-owned account (EOA) and not a contract.\r\n     */\r\n    function isContract(address account) internal view returns (bool) {\r\n        // This method relies in extcodesize, which returns 0 for contracts in\r\n        // construction, since the code is only stored at the end of the\r\n        // constructor execution.\r\n\r\n        uint256 size;\r\n        // solhint-disable-next-line no-inline-assembly\r\n        assembly { size := extcodesize(account) }\r\n        return size > 0;\r\n    }\r\n}\r\n\r\n/**\r\n * @title SafeERC20\r\n * @dev Wrappers around ERC20 operations that throw on failure (when the token\r\n * contract returns false). Tokens that return no value (and instead revert or\r\n * throw on failure) are also supported, non-reverting calls are assumed to be\r\n * successful.\r\n * To use this library you can add a `using SafeERC20 for ERC20;` statement to your contract,\r\n * which allows you to call the safe operations as `token.safeTransfer(...)`, etc.\r\n */\r\nlibrary SafeERC20 {\r\n    using SafeMath for uint256;\r\n    using Address for address;\r\n\r\n    function safeTransfer(IERC20 token, address to, uint256 value) internal {\r\n        callOptionalReturn(token, abi.encodeWithSelector(token.transfer.selector, to, value));\r\n    }\r\n\r\n    function safeTransferFrom(IERC20 token, address from, address to, uint256 value) internal {\r\n        callOptionalReturn(token, abi.encodeWithSelector(token.transferFrom.selector, from, to, value));\r\n    }\r\n\r\n    function safeApprove(IERC20 token, address spender, uint256 value) internal {\r\n        // safeApprove should only be called when setting an initial allowance,\r\n        // or when resetting it to zero. To increase and decrease it, use\r\n        // 'safeIncreaseAllowance' and 'safeDecreaseAllowance'\r\n        // solhint-disable-next-line max-line-length\r\n        require((value == 0) || (token.allowance(address(this), spender) == 0),\r\n            \"SafeERC20: approve from non-zero to non-zero allowance\"\r\n        );\r\n        callOptionalReturn(token, abi.encodeWithSelector(token.approve.selector, spender, value));\r\n    }\r\n\r\n    function safeIncreaseAllowance(IERC20 token, address spender, uint256 value) internal {\r\n        uint256 newAllowance = token.allowance(address(this), spender).add(value);\r\n        callOptionalReturn(token, abi.encodeWithSelector(token.approve.selector, spender, newAllowance));\r\n    }\r\n\r\n    function safeDecreaseAllowance(IERC20 token, address spender, uint256 value) internal {\r\n        uint256 newAllowance = token.allowance(address(this), spender).sub(value);\r\n        callOptionalReturn(token, abi.encodeWithSelector(token.approve.selector, spender, newAllowance));\r\n    }\r\n\r\n    /**\r\n     * @dev Imitates a Solidity high-level call (i.e. a regular function call to a contract), relaxing the requirement\r\n     * on the return value: the return value is optional (but if data is returned, it must not be false).\r\n     * @param token The token targeted by the call.\r\n     * @param data The call data (encoded using abi.encode or one of its variants).\r\n     */\r\n    function callOptionalReturn(IERC20 token, bytes memory data) private {\r\n        // We need to perform a low level call here, to bypass Solidity's return data size checking mechanism, since\r\n        // we're implementing it ourselves.\r\n\r\n        // A Solidity high level call has three parts:\r\n        //  1. The target address is checked to verify it contains contract code\r\n        //  2. The call itself is made, and success asserted\r\n        //  3. The return value is decoded, which in turn checks the size of the returned data.\r\n        // solhint-disable-next-line max-line-length\r\n        require(address(token).isContract(), \"SafeERC20: call to non-contract\");\r\n\r\n        // solhint-disable-next-line avoid-low-level-calls\r\n        (bool success, bytes memory returndata) = address(token).call(data);\r\n        require(success, \"SafeERC20: low-level call failed\");\r\n\r\n        if (returndata.length > 0) { // Return data is optional\r\n            // solhint-disable-next-line max-line-length\r\n            require(abi.decode(returndata, (bool)), \"SafeERC20: ERC20 operation did not succeed\");\r\n        }\r\n    }\r\n}\r\n\r\n/**\r\n * @dev Contract module that helps prevent reentrant calls to a function.\r\n *\r\n * Inheriting from `ReentrancyGuard` will make the `nonReentrant` modifier\r\n * available, which can be aplied to functions to make sure there are no nested\r\n * (reentrant) calls to them.\r\n *\r\n * Note that because there is a single `nonReentrant` guard, functions marked as\r\n * `nonReentrant` may not call one another. This can be worked around by making\r\n * those functions `private`, and then adding `external` `nonReentrant` entry\r\n * points to them.\r\n */\r\ncontract ReentrancyGuard {\r\n    /// @dev counter to allow mutex lock with only one SSTORE operation\r\n    uint256 private _guardCounter;\r\n\r\n    constructor () internal {\r\n        // The counter starts at one to prevent changing it from zero to a non-zero\r\n        // value, which is a more expensive operation.\r\n        _guardCounter = 1;\r\n    }\r\n\r\n    /**\r\n     * @dev Prevents a contract from calling itself, directly or indirectly.\r\n     * Calling a `nonReentrant` function from another `nonReentrant`\r\n     * function is not supported. It is possible to prevent this from happening\r\n     * by making the `nonReentrant` function external, and make it call a\r\n     * `private` function that does the actual work.\r\n     */\r\n    modifier nonReentrant() {\r\n        _guardCounter += 1;\r\n        uint256 localCounter = _guardCounter;\r\n        _;\r\n        require(localCounter == _guardCounter, \"ReentrancyGuard: reentrant call\");\r\n    }\r\n}\r\n\r\n// Inheritance\r\ninterface IStakingRewards {\r\n    // Views\r\n    function lastTimeRewardApplicable() external view returns (uint256);\r\n\r\n    function rewardPerToken() external view returns (uint256);\r\n\r\n    function earned(address account) external view returns (uint256);\r\n\r\n    function getRewardForDuration() external view returns (uint256);\r\n\r\n    function totalSupply() external view returns (uint256);\r\n\r\n    function balanceOf(address account) external view returns (uint256);\r\n\r\n    // Mutative\r\n\r\n    function stake(uint256 amount) external;\r\n\r\n    function withdraw(uint256 amount) external;\r\n\r\n    function getReward() external;\r\n\r\n    function exit() external;\r\n}\r\n\r\ncontract RewardsDistributionRecipient {\r\n    address public rewardsDistribution;\r\n\r\n    function notifyRewardAmount(uint256 reward) external;\r\n\r\n    modifier onlyRewardsDistribution() {\r\n        require(msg.sender == rewardsDistribution, \"Caller is not RewardsDistribution contract\");\r\n        _;\r\n    }\r\n}\r\n\r\ncontract StakingRewards is IStakingRewards, RewardsDistributionRecipient, ReentrancyGuard {\r\n    using SafeMath for uint256;\r\n    using SafeERC20 for IERC20;\r\n\r\n    /* ========== STATE VARIABLES ========== */\r\n\r\n    IERC20 public rewardsToken;\r\n    IERC20 public stakingToken;\r\n    uint256 public periodFinish = 0;\r\n    uint256 public rewardRate = 0;\r\n    uint256 public rewardsDuration = 14 days;\r\n    uint256 public lastUpdateTime;\r\n    uint256 public rewardPerTokenStored;\r\n\r\n    mapping(address => uint256) public userRewardPerTokenPaid;\r\n    mapping(address => uint256) public rewards;\r\n\r\n    uint256 private _totalSupply;\r\n    mapping(address => uint256) private _balances;\r\n\r\n    /* ========== CONSTRUCTOR ========== */\r\n\r\n    constructor(\r\n        address _rewardsDistribution,\r\n        address _rewardsToken,\r\n        address _stakingToken\r\n    ) public {\r\n        rewardsToken = IERC20(_rewardsToken);\r\n        stakingToken = IERC20(_stakingToken);\r\n        rewardsDistribution = _rewardsDistribution;\r\n    }\r\n\r\n    /* ========== VIEWS ========== */\r\n\r\n    function totalSupply() external view returns (uint256) {\r\n        return _totalSupply;\r\n    }\r\n\r\n    function balanceOf(address account) external view returns (uint256) {\r\n        return _balances[account];\r\n    }\r\n\r\n    function lastTimeRewardApplicable() public view returns (uint256) {\r\n        return Math.min(block.timestamp, periodFinish);\r\n    }\r\n\r\n    function rewardPerToken() public view returns (uint256) {\r\n        if (_totalSupply == 0) {\r\n            return rewardPerTokenStored;\r\n        }\r\n        return\r\n            rewardPerTokenStored.add(\r\n                lastTimeRewardApplicable().sub(lastUpdateTime).mul(rewardRate).mul(1e18).div(_totalSupply)\r\n            );\r\n    }\r\n\r\n    function earned(address account) public view returns (uint256) {\r\n        return _balances[account].mul(rewardPerToken().sub(userRewardPerTokenPaid[account])).div(1e18).add(rewards[account]);\r\n    }\r\n\r\n    function getRewardForDuration() external view returns (uint256) {\r\n        return rewardRate.mul(rewardsDuration);\r\n    }\r\n\r\n    /* ========== MUTATIVE FUNCTIONS ========== */\r\n\r\n    function stakeWithPermit(uint256 amount, uint deadline, uint8 v, bytes32 r, bytes32 s) external nonReentrant updateReward(msg.sender) {\r\n        require(amount > 0, \"Cannot stake 0\");\r\n        _totalSupply = _totalSupply.add(amount);\r\n        _balances[msg.sender] = _balances[msg.sender].add(amount);\r\n\r\n        // permit\r\n        IUniswapV2ERC20(address(stakingToken)).permit(msg.sender, address(this), amount, deadline, v, r, s);\r\n\r\n        stakingToken.safeTransferFrom(msg.sender, address(this), amount);\r\n        emit Staked(msg.sender, amount);\r\n    }\r\n\r\n    function stake(uint256 amount) external nonReentrant updateReward(msg.sender) {\r\n        require(amount > 0, \"Cannot stake 0\");\r\n        _totalSupply = _totalSupply.add(amount);\r\n        _balances[msg.sender] = _balances[msg.sender].add(amount);\r\n        stakingToken.safeTransferFrom(msg.sender, address(this), amount);\r\n        emit Staked(msg.sender, amount);\r\n    }\r\n\r\n    function withdraw(uint256 amount) public nonReentrant updateReward(msg.sender) {\r\n        require(amount > 0, \"Cannot withdraw 0\");\r\n        _totalSupply = _totalSupply.sub(amount);\r\n        _balances[msg.sender] = _balances[msg.sender].sub(amount);\r\n        stakingToken.safeTransfer(msg.sender, amount);\r\n        emit Withdrawn(msg.sender, amount);\r\n    }\r\n\r\n    function getReward() public nonReentrant updateReward(msg.sender) {\r\n        uint256 reward = rewards[msg.sender];\r\n        if (reward > 0) {\r\n            rewards[msg.sender] = 0;\r\n            rewardsToken.safeTransfer(msg.sender, reward);\r\n            emit RewardPaid(msg.sender, reward);\r\n        }\r\n    }\r\n\r\n    function exit() external {\r\n        withdraw(_balances[msg.sender]);\r\n        getReward();\r\n    }\r\n\r\n    /* ========== RESTRICTED FUNCTIONS ========== */\r\n\r\n    function notifyRewardAmount(uint256 reward) external onlyRewardsDistribution updateReward(address(0)) {\r\n        if (block.timestamp >= periodFinish) {\r\n            rewardRate = reward.div(rewardsDuration);\r\n        } else {\r\n            uint256 remaining = periodFinish.sub(block.timestamp);\r\n            uint256 leftover = remaining.mul(rewardRate);\r\n            rewardRate = reward.add(leftover).div(rewardsDuration);\r\n        }\r\n\r\n        // Ensure the provided reward amount is not more than the balance in the contract.\r\n        // This keeps the reward rate in the right range, preventing overflows due to\r\n        // very high values of rewardRate in the earned and rewardsPerToken functions;\r\n        // Reward + leftover must be less than 2^256 / 10^18 to avoid overflow.\r\n        uint balance = rewardsToken.balanceOf(address(this));\r\n        require(rewardRate <= balance.div(rewardsDuration), \"Provided reward too high\");\r\n\r\n        lastUpdateTime = block.timestamp;\r\n        periodFinish = block.timestamp.add(rewardsDuration);\r\n        emit RewardAdded(reward);\r\n    }\r\n\r\n    /* ========== MODIFIERS ========== */\r\n\r\n    modifier updateReward(address account) {\r\n        rewardPerTokenStored = rewardPerToken();\r\n        lastUpdateTime = lastTimeRewardApplicable();\r\n        if (account != address(0)) {\r\n            rewards[account] = earned(account);\r\n            userRewardPerTokenPaid[account] = rewardPerTokenStored;\r\n        }\r\n        _;\r\n    }\r\n\r\n    /* ========== EVENTS ========== */\r\n\r\n    event RewardAdded(uint256 reward);\r\n    event Staked(address indexed user, uint256 amount);\r\n    event Withdrawn(address indexed user, uint256 amount);\r\n    event RewardPaid(address indexed user, uint256 reward);\r\n}\r\n\r\ninterface IUniswapV2ERC20 {\r\n    function permit(address owner, address spender, uint value, uint deadline, uint8 v, bytes32 r, bytes32 s) external;\r\n}\r\n\r\ncontract StakingRewardsFactory is Ownable {\r\n    // immutables\r\n    address public rewardsToken;\r\n    uint public stakingRewardsGenesis;\r\n\r\n    // the staking tokens for which the rewards contract has been deployed\r\n    address[] public stakingTokens;\r\n\r\n    // info about rewards for a particular staking token\r\n    struct StakingRewardsInfo {\r\n        address stakingRewards;\r\n        uint rewardAmount;\r\n    }\r\n\r\n    // rewards info by staking token\r\n    mapping(address => StakingRewardsInfo) public stakingRewardsInfoByStakingToken;\r\n\r\n    constructor(\r\n        address _rewardsToken,\r\n        uint _stakingRewardsGenesis\r\n    ) Ownable() public {\r\n        require(_stakingRewardsGenesis >= block.timestamp, 'StakingRewardsFactory::constructor: genesis too soon');\r\n\r\n        rewardsToken = _rewardsToken;\r\n        stakingRewardsGenesis = _stakingRewardsGenesis;\r\n    }\r\n\r\n    ///// permissioned functions\r\n\r\n    // deploy a staking reward contract for the staking token, and store the reward amount\r\n    // the reward will be distributed to the staking reward contract no sooner than the genesis\r\n    function deploy(address stakingToken, uint rewardAmount) public onlyOwner {\r\n        StakingRewardsInfo storage info = stakingRewardsInfoByStakingToken[stakingToken];\r\n        require(info.stakingRewards == address(0), 'StakingRewardsFactory::deploy: already deployed');\r\n\r\n        info.stakingRewards = address(new StakingRewards(/*_rewardsDistribution=*/ address(this), rewardsToken, stakingToken));\r\n        info.rewardAmount = rewardAmount;\r\n        stakingTokens.push(stakingToken);\r\n    }\r\n\r\n    ///// permissionless functions\r\n\r\n    // call notifyRewardAmount for all staking tokens.\r\n    function notifyRewardAmounts() public {\r\n        require(stakingTokens.length > 0, 'StakingRewardsFactory::notifyRewardAmounts: called before any deploys');\r\n        for (uint i = 0; i < stakingTokens.length; i++) {\r\n            notifyRewardAmount(stakingTokens[i]);\r\n        }\r\n    }\r\n\r\n    // notify reward amount for an individual staking token.\r\n    // this is a fallback in case the notifyRewardAmounts costs too much gas to call for all contracts\r\n    function notifyRewardAmount(address stakingToken) public {\r\n        require(block.timestamp >= stakingRewardsGenesis, 'StakingRewardsFactory::notifyRewardAmount: not ready');\r\n\r\n        StakingRewardsInfo storage info = stakingRewardsInfoByStakingToken[stakingToken];\r\n        require(info.stakingRewards != address(0), 'StakingRewardsFactory::notifyRewardAmount: not deployed');\r\n\r\n        if (info.rewardAmount > 0) {\r\n            uint rewardAmount = info.rewardAmount;\r\n            info.rewardAmount = 0;\r\n\r\n            require(\r\n                IERC20(rewardsToken).transfer(info.stakingRewards, rewardAmount),\r\n                'StakingRewardsFactory::notifyRewardAmount: transfer failed'\r\n            );\r\n            StakingRewards(info.stakingRewards).notifyRewardAmount(rewardAmount);\r\n        }\r\n    }\r\n}",
  "sourcePath": "D:\\Workspaces\\DaoswapDex\\daoswapdex\\core-staking-rewards\\contracts\\StakingRewardsFactory.sol",
  "compiler": {
    "name": "solc",
    "version": "0.5.17+commit.d19bba13.Emscripten.clang"
  },
  "schemaVersion": "3.4.3",
  "updatedAt": "2021-10-27T16:11:22.608Z",
  "networkType": "ethereum",
  "devdoc": {
    "methods": {
      "isOwner()": {
        "details": "Returns true if the caller is the current owner."
      },
      "owner()": {
        "details": "Returns the address of the current owner."
      },
      "renounceOwnership()": {
        "details": "Leaves the contract without owner. It will not be possible to call `onlyOwner` functions anymore. Can only be called by the current owner.      * > Note: Renouncing ownership will leave the contract without an owner, thereby removing any functionality that is only available to the owner."
      },
      "transferOwnership(address)": {
        "details": "Transfers ownership of the contract to a new account (`newOwner`). Can only be called by the current owner."
      }
    }
  },
  "userdoc": {
    "methods": {
      "deploy(address,uint256)": {
        "notice": "// permissioned functions"
      },
      "notifyRewardAmounts()": {
        "notice": "// permissionless functions"
      }
    }
  }
}