{
  "contractName": "StakingLimit",
  "abi": [
    {
      "inputs": [
        {
          "internalType": "address",
          "name": "_stakingToken",
          "type": "address"
        },
        {
          "internalType": "address",
          "name": "_tokenWallet",
          "type": "address"
        },
        {
          "internalType": "address payable",
          "name": "_wallet",
          "type": "address"
        },
        {
          "internalType": "uint256",
          "name": "_duration",
          "type": "uint256"
        },
        {
          "internalType": "uint256",
          "name": "_stageCliffUnit",
          "type": "uint256"
        },
        {
          "internalType": "uint256",
          "name": "_cap",
          "type": "uint256"
        },
        {
          "internalType": "uint256",
          "name": "_maxStakingAmount",
          "type": "uint256"
        },
        {
          "internalType": "uint256",
          "name": "_minStakingAmount",
          "type": "uint256"
        }
      ],
      "stateMutability": "nonpayable",
      "type": "constructor"
    },
    {
      "anonymous": false,
      "inputs": [
        {
          "indexed": true,
          "internalType": "address",
          "name": "previousOwner",
          "type": "address"
        },
        {
          "indexed": true,
          "internalType": "address",
          "name": "newOwner",
          "type": "address"
        }
      ],
      "name": "OwnershipTransferred",
      "type": "event"
    },
    {
      "anonymous": false,
      "inputs": [
        {
          "indexed": true,
          "internalType": "address",
          "name": "staker",
          "type": "address"
        },
        {
          "indexed": false,
          "internalType": "uint256",
          "name": "value",
          "type": "uint256"
        },
        {
          "indexed": false,
          "internalType": "address",
          "name": "vestingToken",
          "type": "address"
        }
      ],
      "name": "TokensStake",
      "type": "event"
    },
    {
      "stateMutability": "nonpayable",
      "type": "fallback"
    },
    {
      "inputs": [],
      "name": "cap",
      "outputs": [
        {
          "internalType": "uint256",
          "name": "",
          "type": "uint256"
        }
      ],
      "stateMutability": "view",
      "type": "function",
      "constant": true
    },
    {
      "inputs": [],
      "name": "duration",
      "outputs": [
        {
          "internalType": "uint256",
          "name": "",
          "type": "uint256"
        }
      ],
      "stateMutability": "view",
      "type": "function",
      "constant": true
    },
    {
      "inputs": [],
      "name": "maxStakingAmount",
      "outputs": [
        {
          "internalType": "uint256",
          "name": "",
          "type": "uint256"
        }
      ],
      "stateMutability": "view",
      "type": "function",
      "constant": true
    },
    {
      "inputs": [],
      "name": "minStakingAmount",
      "outputs": [
        {
          "internalType": "uint256",
          "name": "",
          "type": "uint256"
        }
      ],
      "stateMutability": "view",
      "type": "function",
      "constant": true
    },
    {
      "inputs": [],
      "name": "owner",
      "outputs": [
        {
          "internalType": "address",
          "name": "",
          "type": "address"
        }
      ],
      "stateMutability": "view",
      "type": "function",
      "constant": true
    },
    {
      "inputs": [],
      "name": "rateDenominator",
      "outputs": [
        {
          "internalType": "uint256",
          "name": "",
          "type": "uint256"
        }
      ],
      "stateMutability": "view",
      "type": "function",
      "constant": true
    },
    {
      "inputs": [],
      "name": "renounceOwnership",
      "outputs": [],
      "stateMutability": "nonpayable",
      "type": "function"
    },
    {
      "inputs": [
        {
          "internalType": "address",
          "name": "",
          "type": "address"
        }
      ],
      "name": "rewardsRateInfoList",
      "outputs": [
        {
          "internalType": "address",
          "name": "rewardsToken",
          "type": "address"
        },
        {
          "internalType": "uint256",
          "name": "rewardsRate",
          "type": "uint256"
        }
      ],
      "stateMutability": "view",
      "type": "function",
      "constant": true
    },
    {
      "inputs": [
        {
          "internalType": "uint256",
          "name": "",
          "type": "uint256"
        }
      ],
      "name": "rewardsTokenList",
      "outputs": [
        {
          "internalType": "address",
          "name": "",
          "type": "address"
        }
      ],
      "stateMutability": "view",
      "type": "function",
      "constant": true
    },
    {
      "inputs": [],
      "name": "stageCliffUnit",
      "outputs": [
        {
          "internalType": "uint256",
          "name": "",
          "type": "uint256"
        }
      ],
      "stateMutability": "view",
      "type": "function",
      "constant": true
    },
    {
      "inputs": [],
      "name": "stakedTotalAmount",
      "outputs": [
        {
          "internalType": "uint256",
          "name": "",
          "type": "uint256"
        }
      ],
      "stateMutability": "view",
      "type": "function",
      "constant": true
    },
    {
      "inputs": [],
      "name": "stakingToken",
      "outputs": [
        {
          "internalType": "address",
          "name": "",
          "type": "address"
        }
      ],
      "stateMutability": "view",
      "type": "function",
      "constant": true
    },
    {
      "inputs": [
        {
          "internalType": "uint256",
          "name": "amount",
          "type": "uint256"
        }
      ],
      "name": "stakingTokens",
      "outputs": [],
      "stateMutability": "payable",
      "type": "function",
      "payable": true
    },
    {
      "inputs": [
        {
          "internalType": "address",
          "name": "",
          "type": "address"
        }
      ],
      "name": "tokenVestingList",
      "outputs": [
        {
          "internalType": "address",
          "name": "stakingToken",
          "type": "address"
        },
        {
          "internalType": "address",
          "name": "stakerToken",
          "type": "address"
        },
        {
          "internalType": "uint256",
          "name": "stakedAmount",
          "type": "uint256"
        }
      ],
      "stateMutability": "view",
      "type": "function",
      "constant": true
    },
    {
      "inputs": [],
      "name": "tokenWallet",
      "outputs": [
        {
          "internalType": "address",
          "name": "",
          "type": "address"
        }
      ],
      "stateMutability": "view",
      "type": "function",
      "constant": true
    },
    {
      "inputs": [
        {
          "internalType": "address",
          "name": "newOwner",
          "type": "address"
        }
      ],
      "name": "transferOwnership",
      "outputs": [],
      "stateMutability": "nonpayable",
      "type": "function"
    },
    {
      "inputs": [],
      "name": "wallet",
      "outputs": [
        {
          "internalType": "address payable",
          "name": "",
          "type": "address"
        }
      ],
      "stateMutability": "view",
      "type": "function",
      "constant": true
    },
    {
      "stateMutability": "payable",
      "type": "receive",
      "payable": true
    },
    {
      "inputs": [
        {
          "internalType": "uint256",
          "name": "_duration",
          "type": "uint256"
        }
      ],
      "name": "setDuration",
      "outputs": [],
      "stateMutability": "nonpayable",
      "type": "function"
    },
    {
      "inputs": [
        {
          "internalType": "uint256",
          "name": "timeUnit",
          "type": "uint256"
        }
      ],
      "name": "setStageCliffUnit",
      "outputs": [],
      "stateMutability": "nonpayable",
      "type": "function"
    },
    {
      "inputs": [
        {
          "internalType": "uint256",
          "name": "amount",
          "type": "uint256"
        }
      ],
      "name": "setCap",
      "outputs": [],
      "stateMutability": "nonpayable",
      "type": "function"
    },
    {
      "inputs": [
        {
          "internalType": "uint256",
          "name": "amount",
          "type": "uint256"
        }
      ],
      "name": "setMaxStakingAmount",
      "outputs": [],
      "stateMutability": "nonpayable",
      "type": "function"
    },
    {
      "inputs": [
        {
          "internalType": "uint256",
          "name": "amount",
          "type": "uint256"
        }
      ],
      "name": "setMinStakingAmount",
      "outputs": [],
      "stateMutability": "nonpayable",
      "type": "function"
    },
    {
      "inputs": [
        {
          "internalType": "address",
          "name": "token",
          "type": "address"
        },
        {
          "internalType": "uint256",
          "name": "rate",
          "type": "uint256"
        }
      ],
      "name": "setRewardsRate",
      "outputs": [],
      "stateMutability": "nonpayable",
      "type": "function"
    },
    {
      "inputs": [],
      "name": "getStakerMemberList",
      "outputs": [
        {
          "internalType": "address[]",
          "name": "",
          "type": "address[]"
        }
      ],
      "stateMutability": "view",
      "type": "function",
      "constant": true
    },
    {
      "inputs": [],
      "name": "getRewardsTokenList",
      "outputs": [
        {
          "internalType": "address[]",
          "name": "",
          "type": "address[]"
        }
      ],
      "stateMutability": "view",
      "type": "function",
      "constant": true
    },
    {
      "inputs": [
        {
          "internalType": "address",
          "name": "account",
          "type": "address"
        }
      ],
      "name": "getTokenVestingAddressByAccount",
      "outputs": [
        {
          "internalType": "address[]",
          "name": "",
          "type": "address[]"
        }
      ],
      "stateMutability": "view",
      "type": "function",
      "constant": true
    },
    {
      "inputs": [],
      "name": "capReached",
      "outputs": [
        {
          "internalType": "bool",
          "name": "",
          "type": "bool"
        }
      ],
      "stateMutability": "view",
      "type": "function",
      "constant": true
    }
  ],
  "bytecode": "0x60806040523480156200001157600080fd5b50604051620061fa380380620061fa833981810160405281019062000037919062000524565b858886866200005b6200004f6200041360201b60201c565b6200041b60201b60201c565b60018081905550600073ffffffffffffffffffffffffffffffffffffffff168473ffffffffffffffffffffffffffffffffffffffff161415620000d5576040517f08c379a0000000000000000000000000000000000000000000000000000000008152600401620000cc90620007a7565b60405180910390fd5b600073ffffffffffffffffffffffffffffffffffffffff168373ffffffffffffffffffffffffffffffffffffffff16141562000148576040517f08c379a00000000000000000000000000000000000000000000000000000000081526004016200013f906200080d565b60405180910390fd5b60008210156200018f576040517f08c379a0000000000000000000000000000000000000000000000000000000008152600401620001869062000763565b60405180910390fd5b6000811015620001d6576040517f08c379a0000000000000000000000000000000000000000000000000000000008152600401620001cd9062000785565b60405180910390fd5b83600560006101000a81548173ffffffffffffffffffffffffffffffffffffffff021916908373ffffffffffffffffffffffffffffffffffffffff16021790555082600660006101000a81548173ffffffffffffffffffffffffffffffffffffffff021916908373ffffffffffffffffffffffffffffffffffffffff160217905550816003819055508060048190555050505050600073ffffffffffffffffffffffffffffffffffffffff168773ffffffffffffffffffffffffffffffffffffffff161415620002dd576040517f08c379a0000000000000000000000000000000000000000000000000000000008152600401620002d490620007eb565b60405180910390fd5b6000811162000323576040517f08c379a00000000000000000000000000000000000000000000000000000000081526004016200031a9062000741565b60405180910390fd5b8082101562000369576040517f08c379a00000000000000000000000000000000000000000000000000000000081526004016200036090620007c9565b60405180910390fd5b82821115620003af576040517f08c379a0000000000000000000000000000000000000000000000000000000008152600401620003a6906200071f565b60405180910390fd5b86600c60006101000a81548173ffffffffffffffffffffffffffffffffffffffff021916908373ffffffffffffffffffffffffffffffffffffffff1602179055508260098190555081600a8190555080600b81905550505050505050505062000ba4565b600033905090565b60008060009054906101000a900473ffffffffffffffffffffffffffffffffffffffff169050816000806101000a81548173ffffffffffffffffffffffffffffffffffffffff021916908373ffffffffffffffffffffffffffffffffffffffff1602179055508173ffffffffffffffffffffffffffffffffffffffff168173ffffffffffffffffffffffffffffffffffffffff167f8be0079c531659141344cd1fd0a4f28419497f9722a3daafe3b4186f6b6457e060405160405180910390a35050565b600081519050620004f08162000b56565b92915050565b600081519050620005078162000b70565b92915050565b6000815190506200051e8162000b8a565b92915050565b600080600080600080600080610100898b0312156200054257600080fd5b6000620005528b828c01620004df565b9850506020620005658b828c01620004df565b9750506040620005788b828c01620004f6565b96505060606200058b8b828c016200050d565b95505060806200059e8b828c016200050d565b94505060a0620005b18b828c016200050d565b93505060c0620005c48b828c016200050d565b92505060e0620005d78b828c016200050d565b9150509295985092959890939650565b6000620005f66042836200082f565b9150620006038262000892565b606082019050919050565b60006200061d603a836200082f565b91506200062a8262000907565b604082019050919050565b6000620006446028836200082f565b9150620006518262000956565b604082019050919050565b60006200066b602e836200082f565b91506200067882620009a5565b604082019050919050565b6000620006926028836200082f565b91506200069f82620009f4565b604082019050919050565b6000620006b96053836200082f565b9150620006c68262000a43565b606082019050919050565b6000620006e0602e836200082f565b9150620006ed8262000ab8565b604082019050919050565b600062000707602e836200082f565b9150620007148262000b07565b604082019050919050565b600060208201905081810360008301526200073a81620005e7565b9050919050565b600060208201905081810360008301526200075c816200060e565b9050919050565b600060208201905081810360008301526200077e8162000635565b9050919050565b60006020820190508181036000830152620007a0816200065c565b9050919050565b60006020820190508181036000830152620007c28162000683565b9050919050565b60006020820190508181036000830152620007e481620006aa565b9050919050565b600060208201905081810360008301526200080681620006d1565b9050919050565b600060208201905081810360008301526200082881620006f8565b9050919050565b600082825260208201905092915050565b60006200084d8262000868565b9050919050565b6000620008618262000868565b9050919050565b600073ffffffffffffffffffffffffffffffffffffffff82169050919050565b6000819050919050565b7f5374616b696e674c696d69743a20546865206d6178696d756d207374616b696e60008201527f6720616d6f756e74206d757374206265206c657373207468616e20746865206360208201527f6170000000000000000000000000000000000000000000000000000000000000604082015250565b7f5374616b696e674c696d69743a20546865206d696e696d756d207374616b696e60008201527f6720616d6f756e742069732067726561746572207468616e2030000000000000602082015250565b7f5374616b696e67546f6b656e3a206475726174696f6e2069732067726561746560008201527f72207468616e2030000000000000000000000000000000000000000000000000602082015250565b7f5374616b696e67546f6b656e3a207374616765436c696666556e69742069732060008201527f67726561746572207468616e2030000000000000000000000000000000000000602082015250565b7f5374616b696e67546f6b656e3a2077616c6c657420697320746865207a65726f60008201527f2061646472657373000000000000000000000000000000000000000000000000602082015250565b7f5374616b696e674c696d69743a20546865206d6178696d756d207374616b696e60008201527f6720616d6f756e742069732067726561746572207468616e20746865206d696e60208201527f696d756d207374616b696e6720616d6f756e7400000000000000000000000000604082015250565b7f5374616b696e674c696d69743a20746f6b656e2077616c6c657420697320746860008201527f65207a65726f2061646472657373000000000000000000000000000000000000602082015250565b7f5374616b696e67546f6b656e3a207374616b696e67546f6b656e20697320746860008201527f65207a65726f2061646472657373000000000000000000000000000000000000602082015250565b62000b618162000840565b811462000b6d57600080fd5b50565b62000b7b8162000854565b811462000b8757600080fd5b50565b62000b958162000888565b811462000ba157600080fd5b50565b6156468062000bb46000396000f3fe608060405260043610620001c95760003560e01c8063612d669e1162000103578063bbc0c9671162000097578063e6007872116200006d578063e60078721462000633578063eac11b2f1462000678578063f2fde38b14620006be578063f6be71d114620006ec57620001db565b8063bbc0c96714620005a3578063bff99c6c14620005d3578063d4bdc1ed146200060357620001db565b8063865192f711620000d9578063865192f714620004e55780638da5cb5b1462000515578063978cd71e14620005455780639e6b9e98146200057357620001db565b8063612d669e146200046d578063715018a6146200049b57806372f702f314620004b557620001db565b80632da7058b116200017b57806347786d37116200015157806347786d3714620003af5780634d5d080614620003dd5780634f935945146200040d578063521eb273146200043d57620001db565b80632da7058b1462000331578063344e5e34146200035f578063355274ea146200037f57620001db565b80630fb5a6b414620001eb5780631f78fb39146200021b578063225a5a9f146200025f57806322ac3f5014620002a357806322b1055414620002d357806325c065b1146200030157620001db565b36620001db57620001d96200071a565b005b348015620001e857600080fd5b50005b348015620001f857600080fd5b506200020362000786565b60405162000212919062003036565b60405180910390f35b3480156200022857600080fd5b506200024760048036038101906200024191906200274a565b6200078c565b60405162000256919062002c18565b60405180910390f35b3480156200026c57600080fd5b506200028b6004803603810190620002859190620026b1565b620007cc565b6040516200029a919062002d29565b60405180910390f35b348015620002b057600080fd5b50620002bb620008a4565b604051620002ca919062003036565b60405180910390f35b348015620002e057600080fd5b50620002ff6004803603810190620002f991906200274a565b620008aa565b005b3480156200030e57600080fd5b5062000319620009c7565b60405162000328919062003036565b60405180910390f35b3480156200033e57600080fd5b506200035d6004803603810190620003579190620026dd565b620009cd565b005b6200037d60048036038101906200037791906200274a565b62000cdc565b005b3480156200038c57600080fd5b506200039762000d93565b604051620003a6919062003036565b60405180910390f35b348015620003bc57600080fd5b50620003db6004803603810190620003d591906200274a565b62000d99565b005b348015620003ea57600080fd5b50620003f562000e26565b60405162000404919062003036565b60405180910390f35b3480156200041a57600080fd5b506200042562000e2c565b60405162000434919062002d4d565b60405180910390f35b3480156200044a57600080fd5b506200045562000e3b565b60405162000464919062002c35565b60405180910390f35b3480156200047a57600080fd5b506200049960048036038101906200049391906200274a565b62000e61565b005b348015620004a857600080fd5b50620004b362000f7c565b005b348015620004c257600080fd5b50620004cd6200100d565b604051620004dc919062002c18565b60405180910390f35b348015620004f257600080fd5b50620004fd62001033565b6040516200050c919062003036565b60405180910390f35b3480156200052257600080fd5b506200052d62001038565b6040516200053c919062002c18565b60405180910390f35b3480156200055257600080fd5b506200057160048036038101906200056b91906200274a565b62001061565b005b3480156200058057600080fd5b506200058b62001135565b6040516200059a919062002d29565b60405180910390f35b348015620005b057600080fd5b50620005bb620011c5565b604051620005ca919062002d29565b60405180910390f35b348015620005e057600080fd5b50620005eb620012d8565b604051620005fa919062002c18565b60405180910390f35b3480156200061057600080fd5b506200061b620012fe565b6040516200062a919062003036565b60405180910390f35b3480156200064057600080fd5b506200065f6004803603810190620006599190620026b1565b62001304565b6040516200066f92919062002cfc565b60405180910390f35b3480156200068557600080fd5b50620006a460048036038101906200069e9190620026b1565b62001348565b604051620006b59392919062002c52565b60405180910390f35b348015620006cb57600080fd5b50620006ea6004803603810190620006e49190620026b1565b620013b2565b005b348015620006f957600080fd5b506200071860048036038101906200071291906200274a565b620014b6565b005b600560009054906101000a900473ffffffffffffffffffffffffffffffffffffffff1673ffffffffffffffffffffffffffffffffffffffff166108fc349081150290604051600060405180830381858888f1935050505015801562000783573d6000803e3d6000fd5b50565b60035481565b600d81815481106200079d57600080fd5b906000526020600020016000915054906101000a900473ffffffffffffffffffffffffffffffffffffffff1681565b60606000600860008473ffffffffffffffffffffffffffffffffffffffff1673ffffffffffffffffffffffffffffffffffffffff1681526020019081526020016000209050806003018054806020026020016040519081016040528092919081815260200182805480156200089757602002820191906000526020600020905b8160009054906101000a900473ffffffffffffffffffffffffffffffffffffffff1673ffffffffffffffffffffffffffffffffffffffff16815260200190600101908083116200084c575b5050505050915050919050565b60045481565b620008b46200158a565b73ffffffffffffffffffffffffffffffffffffffff16620008d462001038565b73ffffffffffffffffffffffffffffffffffffffff16146200092d576040517f08c379a0000000000000000000000000000000000000000000000000000000008152600401620009249062002ec0565b60405180910390fd5b60095481111562000975576040517f08c379a00000000000000000000000000000000000000000000000000000000081526004016200096c9062002db0565b60405180910390fd5b600b54811015620009bd576040517f08c379a0000000000000000000000000000000000000000000000000000000008152600401620009b49062002f6a565b60405180910390fd5b80600a8190555050565b600b5481565b620009d76200158a565b73ffffffffffffffffffffffffffffffffffffffff16620009f762001038565b73ffffffffffffffffffffffffffffffffffffffff161462000a50576040517f08c379a000000000000000000000000000000000000000000000000000000000815260040162000a479062002ec0565b60405180910390fd5b600073ffffffffffffffffffffffffffffffffffffffff168273ffffffffffffffffffffffffffffffffffffffff16141562000ac3576040517f08c379a000000000000000000000000000000000000000000000000000000000815260040162000aba9062002f26565b60405180910390fd5b600081101562000b0a576040517f08c379a000000000000000000000000000000000000000000000000000000000815260040162000b019062002ee2565b60405180910390fd5b6000600e60008473ffffffffffffffffffffffffffffffffffffffff1673ffffffffffffffffffffffffffffffffffffffff1681526020019081526020016000209050600073ffffffffffffffffffffffffffffffffffffffff168160000160009054906101000a900473ffffffffffffffffffffffffffffffffffffffff1673ffffffffffffffffffffffffffffffffffffffff161462000bb55781816001018190555062000cd7565b60405180604001604052808473ffffffffffffffffffffffffffffffffffffffff16815260200183815250600e60008573ffffffffffffffffffffffffffffffffffffffff1673ffffffffffffffffffffffffffffffffffffffff16815260200190815260200160002060008201518160000160006101000a81548173ffffffffffffffffffffffffffffffffffffffff021916908373ffffffffffffffffffffffffffffffffffffffff16021790555060208201518160010155905050600d839080600181540180825580915050600190039060005260206000200160009091909190916101000a81548173ffffffffffffffffffffffffffffffffffffffff021916908373ffffffffffffffffffffffffffffffffffffffff1602179055505b505050565b6002600154141562000d25576040517f08c379a000000000000000000000000000000000000000000000000000000000815260040162000d1c9062002fae565b60405180910390fd5b6002600181905550600062000d396200158a565b905062000d47818362001592565b62000d5381836200183d565b62000d6a8260025462001d6790919063ffffffff16565b60028190555062000d7c818362001d7f565b62000d88818362001d83565b506001808190555050565b60095481565b62000da36200158a565b73ffffffffffffffffffffffffffffffffffffffff1662000dc362001038565b73ffffffffffffffffffffffffffffffffffffffff161462000e1c576040517f08c379a000000000000000000000000000000000000000000000000000000000815260040162000e139062002ec0565b60405180910390fd5b8060098190555050565b600a5481565b60006009546002541015905090565b600560009054906101000a900473ffffffffffffffffffffffffffffffffffffffff1681565b62000e6b6200158a565b73ffffffffffffffffffffffffffffffffffffffff1662000e8b62001038565b73ffffffffffffffffffffffffffffffffffffffff161462000ee4576040517f08c379a000000000000000000000000000000000000000000000000000000000815260040162000edb9062002ec0565b60405180910390fd5b6000811162000f2a576040517f08c379a000000000000000000000000000000000000000000000000000000000815260040162000f219062002e16565b60405180910390fd5b600a5481111562000f72576040517f08c379a000000000000000000000000000000000000000000000000000000000815260040162000f699062002fd0565b60405180910390fd5b80600b8190555050565b62000f866200158a565b73ffffffffffffffffffffffffffffffffffffffff1662000fa662001038565b73ffffffffffffffffffffffffffffffffffffffff161462000fff576040517f08c379a000000000000000000000000000000000000000000000000000000000815260040162000ff69062002ec0565b60405180910390fd5b6200100b600062001d87565b565b600660009054906101000a900473ffffffffffffffffffffffffffffffffffffffff1681565b606481565b60008060009054906101000a900473ffffffffffffffffffffffffffffffffffffffff16905090565b6200106b6200158a565b73ffffffffffffffffffffffffffffffffffffffff166200108b62001038565b73ffffffffffffffffffffffffffffffffffffffff1614620010e4576040517f08c379a0000000000000000000000000000000000000000000000000000000008152600401620010db9062002ec0565b60405180910390fd5b60008110156200112b576040517f08c379a0000000000000000000000000000000000000000000000000000000008152600401620011229062002f04565b60405180910390fd5b8060048190555050565b6060600d805480602002602001604051908101604052809291908181526020018280548015620011bb57602002820191906000526020600020905b8160009054906101000a900473ffffffffffffffffffffffffffffffffffffffff1673ffffffffffffffffffffffffffffffffffffffff168152602001906001019080831162001170575b5050505050905090565b6060620011d16200158a565b73ffffffffffffffffffffffffffffffffffffffff16620011f162001038565b73ffffffffffffffffffffffffffffffffffffffff16146200124a576040517f08c379a0000000000000000000000000000000000000000000000000000000008152600401620012419062002ec0565b60405180910390fd5b6007805480602002602001604051908101604052809291908181526020018280548015620012ce57602002820191906000526020600020905b8160009054906101000a900473ffffffffffffffffffffffffffffffffffffffff1673ffffffffffffffffffffffffffffffffffffffff168152602001906001019080831162001283575b5050505050905090565b600c60009054906101000a900473ffffffffffffffffffffffffffffffffffffffff1681565b60025481565b600e6020528060005260406000206000915090508060000160009054906101000a900473ffffffffffffffffffffffffffffffffffffffff16908060010154905082565b60086020528060005260406000206000915090508060000160009054906101000a900473ffffffffffffffffffffffffffffffffffffffff16908060010160009054906101000a900473ffffffffffffffffffffffffffffffffffffffff16908060020154905083565b620013bc6200158a565b73ffffffffffffffffffffffffffffffffffffffff16620013dc62001038565b73ffffffffffffffffffffffffffffffffffffffff161462001435576040517f08c379a00000000000000000000000000000000000000000000000000000000081526004016200142c9062002ec0565b60405180910390fd5b600073ffffffffffffffffffffffffffffffffffffffff168173ffffffffffffffffffffffffffffffffffffffff161415620014a8576040517f08c379a00000000000000000000000000000000000000000000000000000000081526004016200149f9062002dd2565b60405180910390fd5b620014b38162001d87565b50565b620014c06200158a565b73ffffffffffffffffffffffffffffffffffffffff16620014e062001038565b73ffffffffffffffffffffffffffffffffffffffff161462001539576040517f08c379a0000000000000000000000000000000000000000000000000000000008152600401620015309062002ec0565b60405180910390fd5b600081101562001580576040517f08c379a0000000000000000000000000000000000000000000000000000000008152600401620015779062002d8e565b60405180910390fd5b8060038190555050565b600033905090565b6200159e828262001e4b565b600954620015b88260025462001d6790919063ffffffff16565b1115620015fc576040517f08c379a0000000000000000000000000000000000000000000000000000000008152600401620015f39062002e9e565b60405180910390fd5b6000600860008473ffffffffffffffffffffffffffffffffffffffff1673ffffffffffffffffffffffffffffffffffffffff1681526020019081526020016000206040518060800160405290816000820160009054906101000a900473ffffffffffffffffffffffffffffffffffffffff1673ffffffffffffffffffffffffffffffffffffffff1673ffffffffffffffffffffffffffffffffffffffff1681526020016001820160009054906101000a900473ffffffffffffffffffffffffffffffffffffffff1673ffffffffffffffffffffffffffffffffffffffff1673ffffffffffffffffffffffffffffffffffffffff16815260200160028201548152602001600382018054806020026020016040519081016040528092919081815260200182805480156200178557602002820191906000526020600020905b8160009054906101000a900473ffffffffffffffffffffffffffffffffffffffff1673ffffffffffffffffffffffffffffffffffffffff16815260200190600101908083116200173a575b5050505050815250509050600a54620017ac83836040015162001d6790919063ffffffff16565b1115620017f0576040517f08c379a0000000000000000000000000000000000000000000000000000000008152600401620017e79062002e38565b60405180910390fd5b600b5482101562001838576040517f08c379a00000000000000000000000000000000000000000000000000000000081526004016200182f9062002df4565b60405180910390fd5b505050565b6000600660009054906101000a900473ffffffffffffffffffffffffffffffffffffffff16834260035460045486604051620018799062002599565b6200188a9695949392919062002c8f565b604051809103906000f080158015620018a7573d6000803e3d6000fd5b5090506000600860008573ffffffffffffffffffffffffffffffffffffffff1673ffffffffffffffffffffffffffffffffffffffff1681526020019081526020016000209050600073ffffffffffffffffffffffffffffffffffffffff168160010160009054906101000a900473ffffffffffffffffffffffffffffffffffffffff1673ffffffffffffffffffffffffffffffffffffffff1614620019d2576200195f83826002015462001d6790919063ffffffff16565b816002018190555080600301829080600181540180825580915050600190039060005260206000200160009091909190916101000a81548173ffffffffffffffffffffffffffffffffffffffff021916908373ffffffffffffffffffffffffffffffffffffffff16021790555062001cb2565b6040518060800160405280600660009054906101000a900473ffffffffffffffffffffffffffffffffffffffff1673ffffffffffffffffffffffffffffffffffffffff1681526020018573ffffffffffffffffffffffffffffffffffffffff168152602001848152602001600067ffffffffffffffff81111562001a7f577f4e487b7100000000000000000000000000000000000000000000000000000000600052604160045260246000fd5b60405190808252806020026020018201604052801562001aae5781602001602082028036833780820191505090505b50815250600860008673ffffffffffffffffffffffffffffffffffffffff1673ffffffffffffffffffffffffffffffffffffffff16815260200190815260200160002060008201518160000160006101000a81548173ffffffffffffffffffffffffffffffffffffffff021916908373ffffffffffffffffffffffffffffffffffffffff16021790555060208201518160010160006101000a81548173ffffffffffffffffffffffffffffffffffffffff021916908373ffffffffffffffffffffffffffffffffffffffff16021790555060408201518160020155606082015181600301908051906020019062001ba7929190620025a7565b50905050600860008573ffffffffffffffffffffffffffffffffffffffff1673ffffffffffffffffffffffffffffffffffffffff168152602001908152602001600020600301829080600181540180825580915050600190039060005260206000200160009091909190916101000a81548173ffffffffffffffffffffffffffffffffffffffff021916908373ffffffffffffffffffffffffffffffffffffffff1602179055506007849080600181540180825580915050600190039060005260206000200160009091909190916101000a81548173ffffffffffffffffffffffffffffffffffffffff021916908373ffffffffffffffffffffffffffffffffffffffff1602179055505b62001d03848385600660009054906101000a900473ffffffffffffffffffffffffffffffffffffffff1673ffffffffffffffffffffffffffffffffffffffff1662002004909392919063ffffffff16565b8373ffffffffffffffffffffffffffffffffffffffff167f5aa982582ddcda688337e649ad820fb4b97913b8970365b591ad0d898c0e9dce848460405162001d4d92919062003053565b60405180910390a262001d61828462002091565b50505050565b6000818362001d779190620030eb565b905092915050565b5050565b5050565b60008060009054906101000a900473ffffffffffffffffffffffffffffffffffffffff169050816000806101000a81548173ffffffffffffffffffffffffffffffffffffffff021916908373ffffffffffffffffffffffffffffffffffffffff1602179055508173ffffffffffffffffffffffffffffffffffffffff168173ffffffffffffffffffffffffffffffffffffffff167f8be0079c531659141344cd1fd0a4f28419497f9722a3daafe3b4186f6b6457e060405160405180910390a35050565b600073ffffffffffffffffffffffffffffffffffffffff168273ffffffffffffffffffffffffffffffffffffffff16141562001ebe576040517f08c379a000000000000000000000000000000000000000000000000000000000815260040162001eb59062002ff2565b60405180910390fd5b6000811162001f04576040517f08c379a000000000000000000000000000000000000000000000000000000000815260040162001efb9062003014565b60405180910390fd5b6000600660009054906101000a900473ffffffffffffffffffffffffffffffffffffffff1673ffffffffffffffffffffffffffffffffffffffff166370a08231846040518263ffffffff1660e01b815260040162001f63919062002c18565b60206040518083038186803b15801562001f7c57600080fd5b505afa15801562001f91573d6000803e3d6000fd5b505050506040513d601f19601f8201168201806040525081019062001fb7919062002776565b90508082111562001fff576040517f08c379a000000000000000000000000000000000000000000000000000000000815260040162001ff69062002e7c565b60405180910390fd5b505050565b6200208b846323b872dd60e01b858585604051602401620020289392919062002c52565b604051602081830303815290604052907bffffffffffffffffffffffffffffffffffffffffffffffffffffffff19166020820180517bffffffffffffffffffffffffffffffffffffffffffffffffffffffff8381831617835250505050620021f9565b50505050565b6000600d805490501115620021f55760005b600d80549050811015620021f357600062002124600d8381548110620020f2577f4e487b7100000000000000000000000000000000000000000000000000000000600052603260045260246000fd5b9060005260206000200160009054906101000a900473ffffffffffffffffffffffffffffffffffffffff1684620022c8565b9050620021dc600c60009054906101000a900473ffffffffffffffffffffffffffffffffffffffff168583600d86815481106200218a577f4e487b7100000000000000000000000000000000000000000000000000000000600052603260045260246000fd5b9060005260206000200160009054906101000a900473ffffffffffffffffffffffffffffffffffffffff1673ffffffffffffffffffffffffffffffffffffffff1662002004909392919063ffffffff16565b508080620021ea9062003275565b915050620020a3565b505b5050565b60006200225d826040518060400160405280602081526020017f5361666545524332303a206c6f772d6c6576656c2063616c6c206661696c65648152508573ffffffffffffffffffffffffffffffffffffffff16620023ae9092919063ffffffff16565b9050600081511115620022c357808060200190518101906200228091906200271e565b620022c2576040517f08c379a0000000000000000000000000000000000000000000000000000000008152600401620022b99062002f8c565b60405180910390fd5b5b505050565b600080600e60008573ffffffffffffffffffffffffffffffffffffffff1673ffffffffffffffffffffffffffffffffffffffff1681526020019081526020016000206040518060400160405290816000820160009054906101000a900473ffffffffffffffffffffffffffffffffffffffff1673ffffffffffffffffffffffffffffffffffffffff1673ffffffffffffffffffffffffffffffffffffffff1681526020016001820154815250509050620023a5606462002396836020015186620023c890919063ffffffff16565b620023e090919063ffffffff16565b91505092915050565b6060620023bf8484600085620023f8565b90509392505050565b60008183620023d8919062003180565b905092915050565b60008183620023f0919062003148565b905092915050565b60608247101562002440576040517f08c379a0000000000000000000000000000000000000000000000000000000008152600401620024379062002e5a565b60405180910390fd5b6200244b856200251a565b6200248d576040517f08c379a0000000000000000000000000000000000000000000000000000000008152600401620024849062002f48565b60405180910390fd5b6000808673ffffffffffffffffffffffffffffffffffffffff168587604051620024b8919062002bff565b60006040518083038185875af1925050503d8060008114620024f7576040519150601f19603f3d011682016040523d82523d6000602084013e620024fc565b606091505b50915091506200250e8282866200252d565b92505050949350505050565b600080823b905060008111915050919050565b606083156200253f5782905062002592565b600083511115620025535782518084602001fd5b816040517f08c379a000000000000000000000000000000000000000000000000000000000815260040162002589919062002d6a565b60405180910390fd5b9392505050565b611c8a806200398783390190565b82805482825590600052602060002090810192821562002623579160200282015b82811115620026225782518260006101000a81548173ffffffffffffffffffffffffffffffffffffffff021916908373ffffffffffffffffffffffffffffffffffffffff16021790555091602001919060010190620025c8565b5b50905062002632919062002636565b5090565b5b808211156200265157600081600090555060010162002637565b5090565b600081359050620026668162003938565b92915050565b6000815190506200267d8162003952565b92915050565b60008135905062002694816200396c565b92915050565b600081519050620026ab816200396c565b92915050565b600060208284031215620026c457600080fd5b6000620026d48482850162002655565b91505092915050565b60008060408385031215620026f157600080fd5b6000620027018582860162002655565b9250506020620027148582860162002683565b9150509250929050565b6000602082840312156200273157600080fd5b600062002741848285016200266c565b91505092915050565b6000602082840312156200275d57600080fd5b60006200276d8482850162002683565b91505092915050565b6000602082840312156200278957600080fd5b600062002799848285016200269a565b91505092915050565b6000620027b08383620027cd565b60208301905092915050565b620027c781620031f5565b82525050565b620027d881620031e1565b82525050565b620027e981620031e1565b82525050565b6000620027fc8262003090565b620028088185620030be565b9350620028158362003080565b8060005b838110156200284c578151620028308882620027a2565b97506200283d83620030b1565b92505060018101905062002819565b5085935050505092915050565b620028648162003209565b82525050565b600062002877826200309b565b620028838185620030cf565b9350620028958185602086016200323f565b80840191505092915050565b6000620028ae82620030a6565b620028ba8185620030da565b9350620028cc8185602086016200323f565b620028d78162003321565b840191505092915050565b6000620028f1602883620030da565b9150620028fe8262003332565b604082019050919050565b600062002918604283620030da565b9150620029258262003381565b606082019050919050565b60006200293f602683620030da565b91506200294c82620033f6565b604082019050919050565b600062002966604783620030da565b9150620029738262003445565b606082019050919050565b60006200298d603a83620030da565b91506200299a82620034ba565b604082019050919050565b6000620029b4602783620030da565b9150620029c18262003509565b604082019050919050565b6000620029db602683620030da565b9150620029e88262003558565b604082019050919050565b600062002a02603283620030da565b915062002a0f82620035a7565b604082019050919050565b600062002a29601a83620030da565b915062002a3682620035f6565b602082019050919050565b600062002a50602083620030da565b915062002a5d826200361f565b602082019050919050565b600062002a77602d83620030da565b915062002a848262003648565b604082019050919050565b600062002a9e602e83620030da565b915062002aab8262003697565b604082019050919050565b600062002ac5602783620030da565b915062002ad282620036e6565b604082019050919050565b600062002aec601d83620030da565b915062002af98262003735565b602082019050919050565b600062002b13605383620030da565b915062002b20826200375e565b606082019050919050565b600062002b3a602a83620030da565b915062002b4782620037d3565b604082019050919050565b600062002b61601f83620030da565b915062002b6e8262003822565b602082019050919050565b600062002b88604f83620030da565b915062002b95826200384b565b606082019050919050565b600062002baf602883620030da565b915062002bbc82620038c0565b604082019050919050565b600062002bd6601f83620030da565b915062002be3826200390f565b602082019050919050565b62002bf98162003235565b82525050565b600062002c0d82846200286a565b915081905092915050565b600060208201905062002c2f6000830184620027de565b92915050565b600060208201905062002c4c6000830184620027bc565b92915050565b600060608201905062002c696000830186620027de565b62002c786020830185620027de565b62002c87604083018462002bee565b949350505050565b600060c08201905062002ca66000830189620027de565b62002cb56020830188620027de565b62002cc4604083018762002bee565b62002cd3606083018662002bee565b62002ce2608083018562002bee565b62002cf160a083018462002bee565b979650505050505050565b600060408201905062002d136000830185620027de565b62002d22602083018462002bee565b9392505050565b6000602082019050818103600083015262002d458184620027ef565b905092915050565b600060208201905062002d64600083018462002859565b92915050565b6000602082019050818103600083015262002d868184620028a1565b905092915050565b6000602082019050818103600083015262002da981620028e2565b9050919050565b6000602082019050818103600083015262002dcb8162002909565b9050919050565b6000602082019050818103600083015262002ded8162002930565b9050919050565b6000602082019050818103600083015262002e0f8162002957565b9050919050565b6000602082019050818103600083015262002e31816200297e565b9050919050565b6000602082019050818103600083015262002e5381620029a5565b9050919050565b6000602082019050818103600083015262002e7581620029cc565b9050919050565b6000602082019050818103600083015262002e9781620029f3565b9050919050565b6000602082019050818103600083015262002eb98162002a1a565b9050919050565b6000602082019050818103600083015262002edb8162002a41565b9050919050565b6000602082019050818103600083015262002efd8162002a68565b9050919050565b6000602082019050818103600083015262002f1f8162002a8f565b9050919050565b6000602082019050818103600083015262002f418162002ab6565b9050919050565b6000602082019050818103600083015262002f638162002add565b9050919050565b6000602082019050818103600083015262002f858162002b04565b9050919050565b6000602082019050818103600083015262002fa78162002b2b565b9050919050565b6000602082019050818103600083015262002fc98162002b52565b9050919050565b6000602082019050818103600083015262002feb8162002b79565b9050919050565b600060208201905081810360008301526200300d8162002ba0565b9050919050565b600060208201905081810360008301526200302f8162002bc7565b9050919050565b60006020820190506200304d600083018462002bee565b92915050565b60006040820190506200306a600083018562002bee565b620030796020830184620027de565b9392505050565b6000819050602082019050919050565b600081519050919050565b600081519050919050565b600081519050919050565b6000602082019050919050565b600082825260208201905092915050565b600081905092915050565b600082825260208201905092915050565b6000620030f88262003235565b9150620031058362003235565b9250827fffffffffffffffffffffffffffffffffffffffffffffffffffffffffffffffff038211156200313d576200313c620032c3565b5b828201905092915050565b6000620031558262003235565b9150620031628362003235565b925082620031755762003174620032f2565b5b828204905092915050565b60006200318d8262003235565b91506200319a8362003235565b9250817fffffffffffffffffffffffffffffffffffffffffffffffffffffffffffffffff0483118215151615620031d657620031d5620032c3565b5b828202905092915050565b6000620031ee8262003215565b9050919050565b6000620032028262003215565b9050919050565b60008115159050919050565b600073ffffffffffffffffffffffffffffffffffffffff82169050919050565b6000819050919050565b60005b838110156200325f57808201518184015260208101905062003242565b838111156200326f576000848401525b50505050565b6000620032828262003235565b91507fffffffffffffffffffffffffffffffffffffffffffffffffffffffffffffffff821415620032b857620032b7620032c3565b5b600182019050919050565b7f4e487b7100000000000000000000000000000000000000000000000000000000600052601160045260246000fd5b7f4e487b7100000000000000000000000000000000000000000000000000000000600052601260045260246000fd5b6000601f19601f8301169050919050565b7f5374616b696e674c696d69743a206475726174696f6e2069732067726561746560008201527f72207468616e2030000000000000000000000000000000000000000000000000602082015250565b7f5374616b696e674c696d69743a20546865206d6178696d756d207374616b696e60008201527f6720616d6f756e74206d757374206265206c657373207468616e20746865206360208201527f6170000000000000000000000000000000000000000000000000000000000000604082015250565b7f4f776e61626c653a206e6577206f776e657220697320746865207a65726f206160008201527f6464726573730000000000000000000000000000000000000000000000000000602082015250565b7f5374616b696e674c696d69743a20546865206d696e696d756d207374616b696e60008201527f6720616d6f756e7420646f6573206e6f74206d6565742074686520726571756960208201527f72656d656e747300000000000000000000000000000000000000000000000000604082015250565b7f5374616b696e674c696d69743a20546865206d696e696d756d207374616b696e60008201527f6720616d6f756e742069732067726561746572207468616e2030000000000000602082015250565b7f5374616b696e674c696d69743a206d61785374616b696e67416d6f756e74206560008201527f7863656564656400000000000000000000000000000000000000000000000000602082015250565b7f416464726573733a20696e73756666696369656e742062616c616e636520666f60008201527f722063616c6c0000000000000000000000000000000000000000000000000000602082015250565b7f5374616b696e67546f6b656e3a20546865207374616b6564416d6f756e74206560008201527f786365656473207468652062616c616e63650000000000000000000000000000602082015250565b7f5374616b696e674c696d69743a20636170206578636565646564000000000000600082015250565b7f4f776e61626c653a2063616c6c6572206973206e6f7420746865206f776e6572600082015250565b7f5374616b696e674c696d69743a2072617465206973206772656174657220746860008201527f616e206f7220657175616c203000000000000000000000000000000000000000602082015250565b7f5374616b696e674c696d69743a207374616765436c696666556e69742069732060008201527f67726561746572207468616e2030000000000000000000000000000000000000602082015250565b7f5374616b696e674c696d69743a20746f6b656e20697320746865207a65726f2060008201527f6164647265737300000000000000000000000000000000000000000000000000602082015250565b7f416464726573733a2063616c6c20746f206e6f6e2d636f6e7472616374000000600082015250565b7f5374616b696e674c696d69743a20546865206d6178696d756d207374616b696e60008201527f6720616d6f756e742069732067726561746572207468616e20746865206d696e60208201527f696d756d207374616b696e6720616d6f756e7400000000000000000000000000604082015250565b7f5361666545524332303a204552433230206f7065726174696f6e20646964206e60008201527f6f74207375636365656400000000000000000000000000000000000000000000602082015250565b7f5265656e7472616e637947756172643a207265656e7472616e742063616c6c00600082015250565b7f5374616b696e674c696d69743a20546865206d696e696d756d207374616b696e60008201527f6720616d6f756e74206d757374206265206c657373207468616e20746865206d60208201527f61785374616b696e67416d6f756e740000000000000000000000000000000000604082015250565b7f5374616b696e67546f6b656e3a207374616b657220697320746865207a65726f60008201527f2061646472657373000000000000000000000000000000000000000000000000602082015250565b7f5374616b696e67546f6b656e3a207374616b6564416d6f756e74206973203000600082015250565b6200394381620031e1565b81146200394f57600080fd5b50565b6200395d8162003209565b81146200396957600080fd5b50565b620039778162003235565b81146200398357600080fd5b5056fe608060405260646006553480156200001657600080fd5b5060405162001c8a38038062001c8a83398181016040528101906200003c9190620003a2565b6200005c620000506200029060201b60201c565b6200029860201b60201c565b600073ffffffffffffffffffffffffffffffffffffffff168673ffffffffffffffffffffffffffffffffffffffff161415620000cf576040517f08c379a0000000000000000000000000000000000000000000000000000000008152600401620000c6906200053a565b60405180910390fd5b600073ffffffffffffffffffffffffffffffffffffffff168573ffffffffffffffffffffffffffffffffffffffff16141562000142576040517f08c379a00000000000000000000000000000000000000000000000000000000081526004016200013990620004f6565b60405180910390fd5b426200015d84866200035c60201b620006bd1790919060201c565b11620001a0576040517f08c379a00000000000000000000000000000000000000000000000000000000081526004016200019790620004d4565b60405180910390fd5b81831015620001e6576040517f08c379a0000000000000000000000000000000000000000000000000000000008152600401620001dd9062000518565b60405180910390fd5b85600160006101000a81548173ffffffffffffffffffffffffffffffffffffffff021916908373ffffffffffffffffffffffffffffffffffffffff16021790555084600260006101000a81548173ffffffffffffffffffffffffffffffffffffffff021916908373ffffffffffffffffffffffffffffffffffffffff16021790555083600381905550826004819055508160058190555080600781905550505050505050620007a7565b600033905090565b60008060009054906101000a900473ffffffffffffffffffffffffffffffffffffffff169050816000806101000a81548173ffffffffffffffffffffffffffffffffffffffff021916908373ffffffffffffffffffffffffffffffffffffffff1602179055508173ffffffffffffffffffffffffffffffffffffffff168173ffffffffffffffffffffffffffffffffffffffff167f8be0079c531659141344cd1fd0a4f28419497f9722a3daafe3b4186f6b6457e060405160405180910390a35050565b600081836200036c91906200056d565b905092915050565b600081519050620003858162000773565b92915050565b6000815190506200039c816200078d565b92915050565b60008060008060008060c08789031215620003bc57600080fd5b6000620003cc89828a0162000374565b9650506020620003df89828a0162000374565b9550506040620003f289828a016200038b565b94505060606200040589828a016200038b565b93505060806200041889828a016200038b565b92505060a06200042b89828a016200038b565b9150509295509295509295565b600062000447602f836200055c565b9150620004548262000637565b604082019050919050565b60006200046e6028836200055c565b91506200047b8262000686565b604082019050919050565b600062000495602e836200055c565b9150620004a282620006d5565b604082019050919050565b6000620004bc602e836200055c565b9150620004c98262000724565b604082019050919050565b60006020820190508181036000830152620004ef8162000438565b9050919050565b6000602082019050818103600083015262000511816200045f565b9050919050565b60006020820190508181036000830152620005338162000486565b9050919050565b600060208201905081810360008301526200055581620004ad565b9050919050565b600082825260208201905092915050565b60006200057a82620005fe565b91506200058783620005fe565b9250827fffffffffffffffffffffffffffffffffffffffffffffffffffffffffffffffff03821115620005bf57620005be62000608565b5b828201905092915050565b6000620005d782620005de565b9050919050565b600073ffffffffffffffffffffffffffffffffffffffff82169050919050565b6000819050919050565b7f4e487b7100000000000000000000000000000000000000000000000000000000600052601160045260246000fd5b7f546f6b656e56657374696e673a2066696e616c2074696d65206973206265666f60008201527f72652063757272656e742074696d650000000000000000000000000000000000602082015250565b7f546f6b656e56657374696e673a207374616b657220697320746865207a65726f60008201527f2061646472657373000000000000000000000000000000000000000000000000602082015250565b7f546f6b656e56657374696e673a20506572696f6420697320677265617465722060008201527f7468616e20756e69742074696d65000000000000000000000000000000000000602082015250565b7f546f6b656e56657374696e673a207374616b696e67546f6b656e20697320746860008201527f65207a65726f2061646472657373000000000000000000000000000000000000602082015250565b6200077e81620005ca565b81146200078a57600080fd5b50565b6200079881620005fe565b8114620007a457600080fd5b50565b6114d380620007b76000396000f3fe608060405234801561001057600080fd5b50600436106100ea5760003560e01c8063715018a61161008c5780639852595c116100665780639852595c14610217578063be9a655514610247578063e41f7d2d14610265578063f2fde38b14610283576100ea565b8063715018a6146101d157806372f702f3146101db5780638da5cb5b146101f9576100ea565b806322ac3f50116100c857806322ac3f5014610159578063373d6132146101775780633a98ef39146101955780635ebaf1db146101b3576100ea565b80630fb5a6b4146100ef5780631726cbc81461010d578063191655871461013d575b600080fd5b6100f761029f565b604051610104919061108c565b60405180910390f35b61012760048036038101906101229190610d79565b6102a5565b604051610134919061108c565b60405180910390f35b61015760048036038101906101529190610d79565b610308565b005b610161610477565b60405161016e919061108c565b60405180910390f35b61017f61047d565b60405161018c919061108c565b60405180910390f35b61019d610483565b6040516101aa919061108c565b60405180910390f35b6101bb610489565b6040516101c89190610f4b565b60405180910390f35b6101d96104af565b005b6101e3610537565b6040516101f09190610f4b565b60405180910390f35b61020161055d565b60405161020e9190610f4b565b60405180910390f35b610231600480360381019061022c9190610d27565b610586565b60405161023e919061108c565b60405180910390f35b61024f61059e565b60405161025c919061108c565b60405180910390f35b61026d6105a4565b60405161027a9190610f8f565b60405180910390f35b61029d60048036038101906102989190610d27565b6105c5565b005b60045481565b6000610301600860008473ffffffffffffffffffffffffffffffffffffffff1673ffffffffffffffffffffffffffffffffffffffff168152602001908152602001600020546102f3846106d3565b6108e890919063ffffffff16565b9050919050565b6000610313826102a5565b905060008111610358576040517f08c379a000000000000000000000000000000000000000000000000000000000815260040161034f90610fec565b60405180910390fd5b6103aa81600860008573ffffffffffffffffffffffffffffffffffffffff1673ffffffffffffffffffffffffffffffffffffffff168152602001908152602001600020546106bd90919063ffffffff16565b600860008473ffffffffffffffffffffffffffffffffffffffff1673ffffffffffffffffffffffffffffffffffffffff1681526020019081526020016000208190555061043a600260009054906101000a900473ffffffffffffffffffffffffffffffffffffffff16828473ffffffffffffffffffffffffffffffffffffffff166108fe9092919063ffffffff16565b7fc7798891864187665ac6dd119286e44ec13f014527aeeb2b8eb3fd413df93179828260405161046b929190610f66565b60405180910390a15050565b60055481565b60075481565b60065481565b600260009054906101000a900473ffffffffffffffffffffffffffffffffffffffff1681565b6104b7610984565b73ffffffffffffffffffffffffffffffffffffffff166104d561055d565b73ffffffffffffffffffffffffffffffffffffffff161461052b576040517f08c379a00000000000000000000000000000000000000000000000000000000081526004016105229061102c565b60405180910390fd5b610535600061098c565b565b600160009054906101000a900473ffffffffffffffffffffffffffffffffffffffff1681565b60008060009054906101000a900473ffffffffffffffffffffffffffffffffffffffff16905090565b60086020528060005260406000206000915090505481565b60035481565b60006105bd6004546003546106bd90919063ffffffff16565b421015905090565b6105cd610984565b73ffffffffffffffffffffffffffffffffffffffff166105eb61055d565b73ffffffffffffffffffffffffffffffffffffffff1614610641576040517f08c379a00000000000000000000000000000000000000000000000000000000081526004016106389061102c565b60405180910390fd5b600073ffffffffffffffffffffffffffffffffffffffff168173ffffffffffffffffffffffffffffffffffffffff1614156106b1576040517f08c379a00000000000000000000000000000000000000000000000000000000081526004016106a890610fcc565b60405180910390fd5b6106ba8161098c565b50565b600081836106cb91906110d9565b905092915050565b6000808273ffffffffffffffffffffffffffffffffffffffff166370a08231306040518263ffffffff1660e01b815260040161070f9190610f4b565b60206040518083038186803b15801561072757600080fd5b505afa15801561073b573d6000803e3d6000fd5b505050506040513d601f19601f8201168201806040525081019061075f9190610da2565b905060006107b5600860008673ffffffffffffffffffffffffffffffffffffffff1673ffffffffffffffffffffffffffffffffffffffff16815260200190815260200160002054836106bd90919063ffffffff16565b90506107ce6004546003546106bd90919063ffffffff16565b42106107de5780925050506108e3565b6000600160009054906101000a900473ffffffffffffffffffffffffffffffffffffffff1673ffffffffffffffffffffffffffffffffffffffff168573ffffffffffffffffffffffffffffffffffffffff16141561084e5761084b600754836108e890919063ffffffff16565b91505b60006003549050600061086e600554600454610a5090919063ffffffff16565b905060005b818110156108d957610890600554846106bd90919063ffffffff16565b92504283111561089f576108d9565b6108c46108b58387610a5090919063ffffffff16565b856106bd90919063ffffffff16565b935080806108d190611221565b915050610873565b5082955050505050505b919050565b600081836108f69190611160565b905092915050565b61097f8363a9059cbb60e01b848460405160240161091d929190610f66565b604051602081830303815290604052907bffffffffffffffffffffffffffffffffffffffffffffffffffffffff19166020820180517bffffffffffffffffffffffffffffffffffffffffffffffffffffffff8381831617835250505050610a66565b505050565b600033905090565b60008060009054906101000a900473ffffffffffffffffffffffffffffffffffffffff169050816000806101000a81548173ffffffffffffffffffffffffffffffffffffffff021916908373ffffffffffffffffffffffffffffffffffffffff1602179055508173ffffffffffffffffffffffffffffffffffffffff168173ffffffffffffffffffffffffffffffffffffffff167f8be0079c531659141344cd1fd0a4f28419497f9722a3daafe3b4186f6b6457e060405160405180910390a35050565b60008183610a5e919061112f565b905092915050565b6000610ac8826040518060400160405280602081526020017f5361666545524332303a206c6f772d6c6576656c2063616c6c206661696c65648152508573ffffffffffffffffffffffffffffffffffffffff16610b2d9092919063ffffffff16565b9050600081511115610b285780806020019051810190610ae89190610d50565b610b27576040517f08c379a0000000000000000000000000000000000000000000000000000000008152600401610b1e9061106c565b60405180910390fd5b5b505050565b6060610b3c8484600085610b45565b90509392505050565b606082471015610b8a576040517f08c379a0000000000000000000000000000000000000000000000000000000008152600401610b819061100c565b60405180910390fd5b610b9385610c59565b610bd2576040517f08c379a0000000000000000000000000000000000000000000000000000000008152600401610bc99061104c565b60405180910390fd5b6000808673ffffffffffffffffffffffffffffffffffffffff168587604051610bfb9190610f34565b60006040518083038185875af1925050503d8060008114610c38576040519150601f19603f3d011682016040523d82523d6000602084013e610c3d565b606091505b5091509150610c4d828286610c6c565b92505050949350505050565b600080823b905060008111915050919050565b60608315610c7c57829050610ccc565b600083511115610c8f5782518084602001fd5b816040517f08c379a0000000000000000000000000000000000000000000000000000000008152600401610cc39190610faa565b60405180910390fd5b9392505050565b600081359050610ce281611441565b92915050565b600081519050610cf781611458565b92915050565b600081359050610d0c8161146f565b92915050565b600081519050610d2181611486565b92915050565b600060208284031215610d3957600080fd5b6000610d4784828501610cd3565b91505092915050565b600060208284031215610d6257600080fd5b6000610d7084828501610ce8565b91505092915050565b600060208284031215610d8b57600080fd5b6000610d9984828501610cfd565b91505092915050565b600060208284031215610db457600080fd5b6000610dc284828501610d12565b91505092915050565b610dd481611194565b82525050565b610de3816111a6565b82525050565b6000610df4826110a7565b610dfe81856110bd565b9350610e0e8185602086016111ee565b80840191505092915050565b6000610e25826110b2565b610e2f81856110c8565b9350610e3f8185602086016111ee565b610e48816112c8565b840191505092915050565b6000610e606026836110c8565b9150610e6b826112d9565b604082019050919050565b6000610e83601f836110c8565b9150610e8e82611328565b602082019050919050565b6000610ea66026836110c8565b9150610eb182611351565b604082019050919050565b6000610ec96020836110c8565b9150610ed4826113a0565b602082019050919050565b6000610eec601d836110c8565b9150610ef7826113c9565b602082019050919050565b6000610f0f602a836110c8565b9150610f1a826113f2565b604082019050919050565b610f2e816111e4565b82525050565b6000610f408284610de9565b915081905092915050565b6000602082019050610f606000830184610dcb565b92915050565b6000604082019050610f7b6000830185610dcb565b610f886020830184610f25565b9392505050565b6000602082019050610fa46000830184610dda565b92915050565b60006020820190508181036000830152610fc48184610e1a565b905092915050565b60006020820190508181036000830152610fe581610e53565b9050919050565b6000602082019050818103600083015261100581610e76565b9050919050565b6000602082019050818103600083015261102581610e99565b9050919050565b6000602082019050818103600083015261104581610ebc565b9050919050565b6000602082019050818103600083015261106581610edf565b9050919050565b6000602082019050818103600083015261108581610f02565b9050919050565b60006020820190506110a16000830184610f25565b92915050565b600081519050919050565b600081519050919050565b600081905092915050565b600082825260208201905092915050565b60006110e4826111e4565b91506110ef836111e4565b9250827fffffffffffffffffffffffffffffffffffffffffffffffffffffffffffffffff038211156111245761112361126a565b5b828201905092915050565b600061113a826111e4565b9150611145836111e4565b92508261115557611154611299565b5b828204905092915050565b600061116b826111e4565b9150611176836111e4565b9250828210156111895761118861126a565b5b828203905092915050565b600061119f826111c4565b9050919050565b60008115159050919050565b60006111bd82611194565b9050919050565b600073ffffffffffffffffffffffffffffffffffffffff82169050919050565b6000819050919050565b60005b8381101561120c5780820151818401526020810190506111f1565b8381111561121b576000848401525b50505050565b600061122c826111e4565b91507fffffffffffffffffffffffffffffffffffffffffffffffffffffffffffffffff82141561125f5761125e61126a565b5b600182019050919050565b7f4e487b7100000000000000000000000000000000000000000000000000000000600052601160045260246000fd5b7f4e487b7100000000000000000000000000000000000000000000000000000000600052601260045260246000fd5b6000601f19601f8301169050919050565b7f4f776e61626c653a206e6577206f776e657220697320746865207a65726f206160008201527f6464726573730000000000000000000000000000000000000000000000000000602082015250565b7f546f6b656e56657374696e673a206e6f20746f6b656e73206172652064756500600082015250565b7f416464726573733a20696e73756666696369656e742062616c616e636520666f60008201527f722063616c6c0000000000000000000000000000000000000000000000000000602082015250565b7f4f776e61626c653a2063616c6c6572206973206e6f7420746865206f776e6572600082015250565b7f416464726573733a2063616c6c20746f206e6f6e2d636f6e7472616374000000600082015250565b7f5361666545524332303a204552433230206f7065726174696f6e20646964206e60008201527f6f74207375636365656400000000000000000000000000000000000000000000602082015250565b61144a81611194565b811461145557600080fd5b50565b611461816111a6565b811461146c57600080fd5b50565b611478816111b2565b811461148357600080fd5b50565b61148f816111e4565b811461149a57600080fd5b5056fea2646970667358221220540ed885fffbce557bc1c76dd26b289d5a8983f8b0b20ee3b5a4825c21ae38c664736f6c63430008040033a26469706673582212204eb45b288c1cc50542ce919aa3136272097073b944de0793273450d4248a206164736f6c63430008040033",
  "immutableReferences": {},
  "source": "// SPDX-License-Identifier: MIT\npragma solidity ^0.8.0;\n\nimport \"@openzeppelin/contracts/access/Ownable.sol\";\nimport \"@openzeppelin/contracts/utils/math/SafeMath.sol\";\nimport \"@openzeppelin/contracts/token/ERC20/IERC20.sol\";\nimport \"@openzeppelin/contracts/utils/math/Math.sol\";\nimport \"@openzeppelin/contracts/token/ERC20/utils/SafeERC20.sol\";\nimport \"./Staking/StakingToken.sol\";\n\ncontract StakingLimit is Ownable, StakingToken {\n    using SafeMath for uint256;\n    using SafeERC20 for IERC20;\n\n    // Rate Denominator\n    uint256 public constant rateDenominator = 100;\n    // Cap Stake Amount\n    uint256 public cap;\n    // Max Stake Amount\n    uint256 public maxStakingAmount;\n    // Min Stake Amount\n    uint256 public minStakingAmount;\n    // Token Wallet, token out address\n    address public tokenWallet;\n    // rewards rate list\n    address[] public rewardsTokenList;\n    // rewards rate info struct\n    struct RewardsRateInfo {\n        address rewardsToken;\n        uint256 rewardsRate;\n    }\n    // Token rewards rate List\n    mapping(address => RewardsRateInfo) public rewardsRateInfoList;\n\n    /********** constructor contract *********/\n    constructor(\n        address _stakingToken, // staking token address\n        address _tokenWallet, // token out address wallet\n        address payable _wallet, // receive token address wallet\n        uint256 _duration, // duration\n        uint256 _stageCliffUnit,\n        uint256 _cap, // \n        uint256 _maxStakingAmount,\n        uint256 _minStakingAmount\n    )\n        StakingToken(_wallet, _stakingToken, _duration, _stageCliffUnit) {\n        require(_tokenWallet != address(0), \"StakingLimit: token wallet is the zero address\");\n        require(_minStakingAmount > 0, \"StakingLimit: The minimum staking amount is greater than 0\");\n        require(_maxStakingAmount >= _minStakingAmount, \"StakingLimit: The maximum staking amount is greater than the minimum staking amount\");\n        require(_maxStakingAmount <= _cap, \"StakingLimit: The maximum staking amount must be less than the cap\");\n\n        tokenWallet = _tokenWallet;\n        cap = _cap;\n        maxStakingAmount = _maxStakingAmount;\n        minStakingAmount = _minStakingAmount;\n    }\n\n    /********** Owner Functions *********/\n    // set duration\n    function setDuration(uint256 _duration) public onlyOwner {\n        require(_duration >= 0, 'StakingLimit: duration is greater than 0');\n        duration = _duration;\n    }\n    // set Interval Duration\n    function setStageCliffUnit(uint256 timeUnit) public onlyOwner {\n        require(timeUnit >= 0, 'StakingLimit: stageCliffUnit is greater than 0');\n        stageCliffUnit = timeUnit;\n    }\n    // set cap amount\n    function setCap(uint256 amount) public onlyOwner {\n        cap = amount;\n    }\n    // set max staking amount\n    function setMaxStakingAmount(uint256 amount) public onlyOwner {\n        require(amount <= cap, \"StakingLimit: The maximum staking amount must be less than the cap\");\n        require(amount >= minStakingAmount, \"StakingLimit: The maximum staking amount is greater than the minimum staking amount\");\n        maxStakingAmount = amount;\n    }\n    // set min staking amount\n    function setMinStakingAmount(uint256 amount) public onlyOwner {\n        require(amount > 0, \"StakingLimit: The minimum staking amount is greater than 0\");\n        require(amount <= maxStakingAmount, \"StakingLimit: The minimum staking amount must be less than the maxStakingAmount\");\n        minStakingAmount = amount;\n    }\n    // set rewards rate\n    function setRewardsRate(address token, uint256 rate) public onlyOwner {\n        require(token != address(0), \"StakingLimit: token is the zero address\");\n        require(rate >= 0, 'StakingLimit: rate is greater than or equal 0');\n        RewardsRateInfo storage info = rewardsRateInfoList[token];\n        if (info.rewardsToken != address(0)) {\n            info.rewardsRate = rate;\n        } else {\n            rewardsRateInfoList[token] = RewardsRateInfo({\n                rewardsToken: token,\n                rewardsRate: rate\n            });\n            rewardsTokenList.push(token);\n        }\n    }\n\n    /********** Validate Amount *********/\n    // validate staked amount\n    function _preValidateStake(address staker, uint256 stakedAmount) internal override view {\n        super._preValidateStake(staker, stakedAmount);\n        require(stakedTotalAmount.add(stakedAmount) <= cap, \"StakingLimit: cap exceeded\");\n        TokenVestingInfo memory info = tokenVestingList[staker];\n        require(info.stakedAmount.add(stakedAmount) <= maxStakingAmount, \"StakingLimit: maxStakingAmount exceeded\");\n        require(stakedAmount >= minStakingAmount, 'StakingLimit: The minimum staking amount does not meet the requirements');\n    }\n\n    // calc rate receive amount\n    function _getOutTokenAmount(address rewardsToken, uint256 stakedAmount) internal view returns (uint256) {\n        RewardsRateInfo memory info = rewardsRateInfoList[rewardsToken];\n        return stakedAmount.mul(info.rewardsRate).div(rateDenominator);\n    }\n\n    /********** User Functions *********/\n    // exec\n    function _deliverTokens(address vestingToken, uint256 stakedAmount) internal override {\n        if (rewardsTokenList.length > 0) {\n            for (uint256 i = 0; i < rewardsTokenList.length; i++) {\n                uint256 receivedAmount = _getOutTokenAmount(rewardsTokenList[i], stakedAmount);\n                // rewards token transfer to vesting contract\n                IERC20(rewardsTokenList[i]).safeTransferFrom(tokenWallet, vestingToken, receivedAmount);\n            }\n        }\n    }\n\n    /********** Query Functions *********/\n    /**\n     * @dev get _stakerMemberList\n     */\n    function getStakerMemberList() public onlyOwner view returns (address[] memory) {\n        return _stakerMemberList;\n    }\n\n    /**\n     * @dev get rewardsTokenList\n     */\n    function getRewardsTokenList() public view returns (address[] memory) {\n        return rewardsTokenList;\n    }\n\n    /**\n     * @dev get vestingAddress list from the tokenVestingList\n     */\n    function getTokenVestingAddressByAccount(address account) public view returns (address[] memory) {\n        TokenVestingInfo storage info = tokenVestingList[account];\n        return info.vestingAddress;\n    }\n\n    /**\n     * @dev Checks whether the cap has been reached.\n     * @return Whether the cap was reached\n     */\n    function capReached() public view returns (bool) {\n        return stakedTotalAmount >= cap;\n    }\n}\n",
  "sourcePath": "/Users/blues/Workspaces/DaoswapDex/daoswapdex/core-staking/contracts/StakingLimit.sol",
  "compiler": {
    "name": "solc",
    "version": "0.8.4+commit.c7e474f2.Emscripten.clang"
  },
  "schemaVersion": "3.4.3",
  "updatedAt": "2021-12-30T03:38:55.210Z",
  "networkType": "ethereum",
  "devdoc": {
    "kind": "dev",
    "methods": {
      "capReached()": {
        "details": "Checks whether the cap has been reached.",
        "returns": {
          "_0": "Whether the cap was reached"
        }
      },
      "getRewardsTokenList()": {
        "details": "get rewardsTokenList"
      },
      "getStakerMemberList()": {
        "details": "get _stakerMemberList"
      },
      "getTokenVestingAddressByAccount(address)": {
        "details": "get vestingAddress list from the tokenVestingList"
      },
      "owner()": {
        "details": "Returns the address of the current owner."
      },
      "renounceOwnership()": {
        "details": "Leaves the contract without owner. It will not be possible to call `onlyOwner` functions anymore. Can only be called by the current owner. NOTE: Renouncing ownership will leave the contract without an owner, thereby removing any functionality that is only available to the owner."
      },
      "transferOwnership(address)": {
        "details": "Transfers ownership of the contract to a new account (`newOwner`). Can only be called by the current owner."
      }
    },
    "version": 1
  },
  "userdoc": {
    "events": {
      "TokensStake(address,uint256,address)": {
        "notice": "Event for token stake logging"
      }
    },
    "kind": "user",
    "methods": {},
    "version": 1
  }
}