{
  "contractName": "TokenVesting",
  "abi": [
    {
      "inputs": [
        {
          "internalType": "address",
          "name": "_stakingToken",
          "type": "address"
        },
        {
          "internalType": "address",
          "name": "_staker",
          "type": "address"
        },
        {
          "internalType": "uint256",
          "name": "_start",
          "type": "uint256"
        },
        {
          "internalType": "uint256",
          "name": "_duration",
          "type": "uint256"
        },
        {
          "internalType": "uint256",
          "name": "_stageCliffUnit",
          "type": "uint256"
        },
        {
          "internalType": "uint256",
          "name": "_stakedAmount",
          "type": "uint256"
        }
      ],
      "stateMutability": "nonpayable",
      "type": "constructor"
    },
    {
      "anonymous": false,
      "inputs": [
        {
          "indexed": true,
          "internalType": "address",
          "name": "previousOwner",
          "type": "address"
        },
        {
          "indexed": true,
          "internalType": "address",
          "name": "newOwner",
          "type": "address"
        }
      ],
      "name": "OwnershipTransferred",
      "type": "event"
    },
    {
      "anonymous": false,
      "inputs": [
        {
          "indexed": false,
          "internalType": "address",
          "name": "token",
          "type": "address"
        },
        {
          "indexed": false,
          "internalType": "uint256",
          "name": "amount",
          "type": "uint256"
        }
      ],
      "name": "TokensReleased",
      "type": "event"
    },
    {
      "inputs": [],
      "name": "duration",
      "outputs": [
        {
          "internalType": "uint256",
          "name": "",
          "type": "uint256"
        }
      ],
      "stateMutability": "view",
      "type": "function"
    },
    {
      "inputs": [],
      "name": "owner",
      "outputs": [
        {
          "internalType": "address",
          "name": "",
          "type": "address"
        }
      ],
      "stateMutability": "view",
      "type": "function"
    },
    {
      "inputs": [
        {
          "internalType": "address",
          "name": "",
          "type": "address"
        }
      ],
      "name": "released",
      "outputs": [
        {
          "internalType": "uint256",
          "name": "",
          "type": "uint256"
        }
      ],
      "stateMutability": "view",
      "type": "function"
    },
    {
      "inputs": [],
      "name": "renounceOwnership",
      "outputs": [],
      "stateMutability": "nonpayable",
      "type": "function"
    },
    {
      "inputs": [],
      "name": "stageCliffUnit",
      "outputs": [
        {
          "internalType": "uint256",
          "name": "",
          "type": "uint256"
        }
      ],
      "stateMutability": "view",
      "type": "function"
    },
    {
      "inputs": [],
      "name": "stakedAmount",
      "outputs": [
        {
          "internalType": "uint256",
          "name": "",
          "type": "uint256"
        }
      ],
      "stateMutability": "view",
      "type": "function"
    },
    {
      "inputs": [],
      "name": "staker",
      "outputs": [
        {
          "internalType": "address",
          "name": "",
          "type": "address"
        }
      ],
      "stateMutability": "view",
      "type": "function"
    },
    {
      "inputs": [],
      "name": "stakingToken",
      "outputs": [
        {
          "internalType": "address",
          "name": "",
          "type": "address"
        }
      ],
      "stateMutability": "view",
      "type": "function"
    },
    {
      "inputs": [],
      "name": "start",
      "outputs": [
        {
          "internalType": "uint256",
          "name": "",
          "type": "uint256"
        }
      ],
      "stateMutability": "view",
      "type": "function"
    },
    {
      "inputs": [],
      "name": "totalShares",
      "outputs": [
        {
          "internalType": "uint256",
          "name": "",
          "type": "uint256"
        }
      ],
      "stateMutability": "view",
      "type": "function"
    },
    {
      "inputs": [
        {
          "internalType": "address",
          "name": "newOwner",
          "type": "address"
        }
      ],
      "name": "transferOwnership",
      "outputs": [],
      "stateMutability": "nonpayable",
      "type": "function"
    },
    {
      "inputs": [],
      "name": "isToReleaseTime",
      "outputs": [
        {
          "internalType": "bool",
          "name": "",
          "type": "bool"
        }
      ],
      "stateMutability": "view",
      "type": "function"
    },
    {
      "inputs": [
        {
          "internalType": "contract IERC20",
          "name": "token",
          "type": "address"
        }
      ],
      "name": "release",
      "outputs": [],
      "stateMutability": "nonpayable",
      "type": "function"
    },
    {
      "inputs": [
        {
          "internalType": "contract IERC20",
          "name": "token",
          "type": "address"
        }
      ],
      "name": "releasableAmount",
      "outputs": [
        {
          "internalType": "uint256",
          "name": "",
          "type": "uint256"
        }
      ],
      "stateMutability": "view",
      "type": "function"
    }
  ],
  "bytecode": "0x608060405260646006553480156200001657600080fd5b5060405162001c8a38038062001c8a83398181016040528101906200003c9190620003a2565b6200005c620000506200029060201b60201c565b6200029860201b60201c565b600073ffffffffffffffffffffffffffffffffffffffff168673ffffffffffffffffffffffffffffffffffffffff161415620000cf576040517f08c379a0000000000000000000000000000000000000000000000000000000008152600401620000c6906200053a565b60405180910390fd5b600073ffffffffffffffffffffffffffffffffffffffff168573ffffffffffffffffffffffffffffffffffffffff16141562000142576040517f08c379a00000000000000000000000000000000000000000000000000000000081526004016200013990620004f6565b60405180910390fd5b426200015d84866200035c60201b620006bd1790919060201c565b11620001a0576040517f08c379a00000000000000000000000000000000000000000000000000000000081526004016200019790620004d4565b60405180910390fd5b81831015620001e6576040517f08c379a0000000000000000000000000000000000000000000000000000000008152600401620001dd9062000518565b60405180910390fd5b85600160006101000a81548173ffffffffffffffffffffffffffffffffffffffff021916908373ffffffffffffffffffffffffffffffffffffffff16021790555084600260006101000a81548173ffffffffffffffffffffffffffffffffffffffff021916908373ffffffffffffffffffffffffffffffffffffffff16021790555083600381905550826004819055508160058190555080600781905550505050505050620007a7565b600033905090565b60008060009054906101000a900473ffffffffffffffffffffffffffffffffffffffff169050816000806101000a81548173ffffffffffffffffffffffffffffffffffffffff021916908373ffffffffffffffffffffffffffffffffffffffff1602179055508173ffffffffffffffffffffffffffffffffffffffff168173ffffffffffffffffffffffffffffffffffffffff167f8be0079c531659141344cd1fd0a4f28419497f9722a3daafe3b4186f6b6457e060405160405180910390a35050565b600081836200036c91906200056d565b905092915050565b600081519050620003858162000773565b92915050565b6000815190506200039c816200078d565b92915050565b60008060008060008060c08789031215620003bc57600080fd5b6000620003cc89828a0162000374565b9650506020620003df89828a0162000374565b9550506040620003f289828a016200038b565b94505060606200040589828a016200038b565b93505060806200041889828a016200038b565b92505060a06200042b89828a016200038b565b9150509295509295509295565b600062000447602f836200055c565b9150620004548262000637565b604082019050919050565b60006200046e6028836200055c565b91506200047b8262000686565b604082019050919050565b600062000495602e836200055c565b9150620004a282620006d5565b604082019050919050565b6000620004bc602e836200055c565b9150620004c98262000724565b604082019050919050565b60006020820190508181036000830152620004ef8162000438565b9050919050565b6000602082019050818103600083015262000511816200045f565b9050919050565b60006020820190508181036000830152620005338162000486565b9050919050565b600060208201905081810360008301526200055581620004ad565b9050919050565b600082825260208201905092915050565b60006200057a82620005fe565b91506200058783620005fe565b9250827fffffffffffffffffffffffffffffffffffffffffffffffffffffffffffffffff03821115620005bf57620005be62000608565b5b828201905092915050565b6000620005d782620005de565b9050919050565b600073ffffffffffffffffffffffffffffffffffffffff82169050919050565b6000819050919050565b7f4e487b7100000000000000000000000000000000000000000000000000000000600052601160045260246000fd5b7f546f6b656e56657374696e673a2066696e616c2074696d65206973206265666f60008201527f72652063757272656e742074696d650000000000000000000000000000000000602082015250565b7f546f6b656e56657374696e673a207374616b657220697320746865207a65726f60008201527f2061646472657373000000000000000000000000000000000000000000000000602082015250565b7f546f6b656e56657374696e673a20506572696f6420697320677265617465722060008201527f7468616e20756e69742074696d65000000000000000000000000000000000000602082015250565b7f546f6b656e56657374696e673a207374616b696e67546f6b656e20697320746860008201527f65207a65726f2061646472657373000000000000000000000000000000000000602082015250565b6200077e81620005ca565b81146200078a57600080fd5b50565b6200079881620005fe565b8114620007a457600080fd5b50565b6114d380620007b76000396000f3fe608060405234801561001057600080fd5b50600436106100ea5760003560e01c8063715018a61161008c5780639852595c116100665780639852595c14610217578063be9a655514610247578063e41f7d2d14610265578063f2fde38b14610283576100ea565b8063715018a6146101d157806372f702f3146101db5780638da5cb5b146101f9576100ea565b806322ac3f50116100c857806322ac3f5014610159578063373d6132146101775780633a98ef39146101955780635ebaf1db146101b3576100ea565b80630fb5a6b4146100ef5780631726cbc81461010d578063191655871461013d575b600080fd5b6100f761029f565b604051610104919061108c565b60405180910390f35b61012760048036038101906101229190610d79565b6102a5565b604051610134919061108c565b60405180910390f35b61015760048036038101906101529190610d79565b610308565b005b610161610477565b60405161016e919061108c565b60405180910390f35b61017f61047d565b60405161018c919061108c565b60405180910390f35b61019d610483565b6040516101aa919061108c565b60405180910390f35b6101bb610489565b6040516101c89190610f4b565b60405180910390f35b6101d96104af565b005b6101e3610537565b6040516101f09190610f4b565b60405180910390f35b61020161055d565b60405161020e9190610f4b565b60405180910390f35b610231600480360381019061022c9190610d27565b610586565b60405161023e919061108c565b60405180910390f35b61024f61059e565b60405161025c919061108c565b60405180910390f35b61026d6105a4565b60405161027a9190610f8f565b60405180910390f35b61029d60048036038101906102989190610d27565b6105c5565b005b60045481565b6000610301600860008473ffffffffffffffffffffffffffffffffffffffff1673ffffffffffffffffffffffffffffffffffffffff168152602001908152602001600020546102f3846106d3565b6108e890919063ffffffff16565b9050919050565b6000610313826102a5565b905060008111610358576040517f08c379a000000000000000000000000000000000000000000000000000000000815260040161034f90610fec565b60405180910390fd5b6103aa81600860008573ffffffffffffffffffffffffffffffffffffffff1673ffffffffffffffffffffffffffffffffffffffff168152602001908152602001600020546106bd90919063ffffffff16565b600860008473ffffffffffffffffffffffffffffffffffffffff1673ffffffffffffffffffffffffffffffffffffffff1681526020019081526020016000208190555061043a600260009054906101000a900473ffffffffffffffffffffffffffffffffffffffff16828473ffffffffffffffffffffffffffffffffffffffff166108fe9092919063ffffffff16565b7fc7798891864187665ac6dd119286e44ec13f014527aeeb2b8eb3fd413df93179828260405161046b929190610f66565b60405180910390a15050565b60055481565b60075481565b60065481565b600260009054906101000a900473ffffffffffffffffffffffffffffffffffffffff1681565b6104b7610984565b73ffffffffffffffffffffffffffffffffffffffff166104d561055d565b73ffffffffffffffffffffffffffffffffffffffff161461052b576040517f08c379a00000000000000000000000000000000000000000000000000000000081526004016105229061102c565b60405180910390fd5b610535600061098c565b565b600160009054906101000a900473ffffffffffffffffffffffffffffffffffffffff1681565b60008060009054906101000a900473ffffffffffffffffffffffffffffffffffffffff16905090565b60086020528060005260406000206000915090505481565b60035481565b60006105bd6004546003546106bd90919063ffffffff16565b421015905090565b6105cd610984565b73ffffffffffffffffffffffffffffffffffffffff166105eb61055d565b73ffffffffffffffffffffffffffffffffffffffff1614610641576040517f08c379a00000000000000000000000000000000000000000000000000000000081526004016106389061102c565b60405180910390fd5b600073ffffffffffffffffffffffffffffffffffffffff168173ffffffffffffffffffffffffffffffffffffffff1614156106b1576040517f08c379a00000000000000000000000000000000000000000000000000000000081526004016106a890610fcc565b60405180910390fd5b6106ba8161098c565b50565b600081836106cb91906110d9565b905092915050565b6000808273ffffffffffffffffffffffffffffffffffffffff166370a08231306040518263ffffffff1660e01b815260040161070f9190610f4b565b60206040518083038186803b15801561072757600080fd5b505afa15801561073b573d6000803e3d6000fd5b505050506040513d601f19601f8201168201806040525081019061075f9190610da2565b905060006107b5600860008673ffffffffffffffffffffffffffffffffffffffff1673ffffffffffffffffffffffffffffffffffffffff16815260200190815260200160002054836106bd90919063ffffffff16565b90506107ce6004546003546106bd90919063ffffffff16565b42106107de5780925050506108e3565b6000600160009054906101000a900473ffffffffffffffffffffffffffffffffffffffff1673ffffffffffffffffffffffffffffffffffffffff168573ffffffffffffffffffffffffffffffffffffffff16141561084e5761084b600754836108e890919063ffffffff16565b91505b60006003549050600061086e600554600454610a5090919063ffffffff16565b905060005b818110156108d957610890600554846106bd90919063ffffffff16565b92504283111561089f576108d9565b6108c46108b58387610a5090919063ffffffff16565b856106bd90919063ffffffff16565b935080806108d190611221565b915050610873565b5082955050505050505b919050565b600081836108f69190611160565b905092915050565b61097f8363a9059cbb60e01b848460405160240161091d929190610f66565b604051602081830303815290604052907bffffffffffffffffffffffffffffffffffffffffffffffffffffffff19166020820180517bffffffffffffffffffffffffffffffffffffffffffffffffffffffff8381831617835250505050610a66565b505050565b600033905090565b60008060009054906101000a900473ffffffffffffffffffffffffffffffffffffffff169050816000806101000a81548173ffffffffffffffffffffffffffffffffffffffff021916908373ffffffffffffffffffffffffffffffffffffffff1602179055508173ffffffffffffffffffffffffffffffffffffffff168173ffffffffffffffffffffffffffffffffffffffff167f8be0079c531659141344cd1fd0a4f28419497f9722a3daafe3b4186f6b6457e060405160405180910390a35050565b60008183610a5e919061112f565b905092915050565b6000610ac8826040518060400160405280602081526020017f5361666545524332303a206c6f772d6c6576656c2063616c6c206661696c65648152508573ffffffffffffffffffffffffffffffffffffffff16610b2d9092919063ffffffff16565b9050600081511115610b285780806020019051810190610ae89190610d50565b610b27576040517f08c379a0000000000000000000000000000000000000000000000000000000008152600401610b1e9061106c565b60405180910390fd5b5b505050565b6060610b3c8484600085610b45565b90509392505050565b606082471015610b8a576040517f08c379a0000000000000000000000000000000000000000000000000000000008152600401610b819061100c565b60405180910390fd5b610b9385610c59565b610bd2576040517f08c379a0000000000000000000000000000000000000000000000000000000008152600401610bc99061104c565b60405180910390fd5b6000808673ffffffffffffffffffffffffffffffffffffffff168587604051610bfb9190610f34565b60006040518083038185875af1925050503d8060008114610c38576040519150601f19603f3d011682016040523d82523d6000602084013e610c3d565b606091505b5091509150610c4d828286610c6c565b92505050949350505050565b600080823b905060008111915050919050565b60608315610c7c57829050610ccc565b600083511115610c8f5782518084602001fd5b816040517f08c379a0000000000000000000000000000000000000000000000000000000008152600401610cc39190610faa565b60405180910390fd5b9392505050565b600081359050610ce281611441565b92915050565b600081519050610cf781611458565b92915050565b600081359050610d0c8161146f565b92915050565b600081519050610d2181611486565b92915050565b600060208284031215610d3957600080fd5b6000610d4784828501610cd3565b91505092915050565b600060208284031215610d6257600080fd5b6000610d7084828501610ce8565b91505092915050565b600060208284031215610d8b57600080fd5b6000610d9984828501610cfd565b91505092915050565b600060208284031215610db457600080fd5b6000610dc284828501610d12565b91505092915050565b610dd481611194565b82525050565b610de3816111a6565b82525050565b6000610df4826110a7565b610dfe81856110bd565b9350610e0e8185602086016111ee565b80840191505092915050565b6000610e25826110b2565b610e2f81856110c8565b9350610e3f8185602086016111ee565b610e48816112c8565b840191505092915050565b6000610e606026836110c8565b9150610e6b826112d9565b604082019050919050565b6000610e83601f836110c8565b9150610e8e82611328565b602082019050919050565b6000610ea66026836110c8565b9150610eb182611351565b604082019050919050565b6000610ec96020836110c8565b9150610ed4826113a0565b602082019050919050565b6000610eec601d836110c8565b9150610ef7826113c9565b602082019050919050565b6000610f0f602a836110c8565b9150610f1a826113f2565b604082019050919050565b610f2e816111e4565b82525050565b6000610f408284610de9565b915081905092915050565b6000602082019050610f606000830184610dcb565b92915050565b6000604082019050610f7b6000830185610dcb565b610f886020830184610f25565b9392505050565b6000602082019050610fa46000830184610dda565b92915050565b60006020820190508181036000830152610fc48184610e1a565b905092915050565b60006020820190508181036000830152610fe581610e53565b9050919050565b6000602082019050818103600083015261100581610e76565b9050919050565b6000602082019050818103600083015261102581610e99565b9050919050565b6000602082019050818103600083015261104581610ebc565b9050919050565b6000602082019050818103600083015261106581610edf565b9050919050565b6000602082019050818103600083015261108581610f02565b9050919050565b60006020820190506110a16000830184610f25565b92915050565b600081519050919050565b600081519050919050565b600081905092915050565b600082825260208201905092915050565b60006110e4826111e4565b91506110ef836111e4565b9250827fffffffffffffffffffffffffffffffffffffffffffffffffffffffffffffffff038211156111245761112361126a565b5b828201905092915050565b600061113a826111e4565b9150611145836111e4565b92508261115557611154611299565b5b828204905092915050565b600061116b826111e4565b9150611176836111e4565b9250828210156111895761118861126a565b5b828203905092915050565b600061119f826111c4565b9050919050565b60008115159050919050565b60006111bd82611194565b9050919050565b600073ffffffffffffffffffffffffffffffffffffffff82169050919050565b6000819050919050565b60005b8381101561120c5780820151818401526020810190506111f1565b8381111561121b576000848401525b50505050565b600061122c826111e4565b91507fffffffffffffffffffffffffffffffffffffffffffffffffffffffffffffffff82141561125f5761125e61126a565b5b600182019050919050565b7f4e487b7100000000000000000000000000000000000000000000000000000000600052601160045260246000fd5b7f4e487b7100000000000000000000000000000000000000000000000000000000600052601260045260246000fd5b6000601f19601f8301169050919050565b7f4f776e61626c653a206e6577206f776e657220697320746865207a65726f206160008201527f6464726573730000000000000000000000000000000000000000000000000000602082015250565b7f546f6b656e56657374696e673a206e6f20746f6b656e73206172652064756500600082015250565b7f416464726573733a20696e73756666696369656e742062616c616e636520666f60008201527f722063616c6c0000000000000000000000000000000000000000000000000000602082015250565b7f4f776e61626c653a2063616c6c6572206973206e6f7420746865206f776e6572600082015250565b7f416464726573733a2063616c6c20746f206e6f6e2d636f6e7472616374000000600082015250565b7f5361666545524332303a204552433230206f7065726174696f6e20646964206e60008201527f6f74207375636365656400000000000000000000000000000000000000000000602082015250565b61144a81611194565b811461145557600080fd5b50565b611461816111a6565b811461146c57600080fd5b50565b611478816111b2565b811461148357600080fd5b50565b61148f816111e4565b811461149a57600080fd5b5056fea2646970667358221220540ed885fffbce557bc1c76dd26b289d5a8983f8b0b20ee3b5a4825c21ae38c664736f6c63430008040033",
  "immutableReferences": {},
  "source": "// SPDX-License-Identifier: MIT\npragma solidity ^0.8.0;\n\nimport \"@openzeppelin/contracts/access/Ownable.sol\";\nimport \"@openzeppelin/contracts/utils/math/SafeMath.sol\";\nimport \"@openzeppelin/contracts/token/ERC20/utils/SafeERC20.sol\";\n\ncontract TokenVesting is Ownable {\n    using SafeMath for uint256;\n    using SafeERC20 for IERC20;\n\n    event TokensReleased(address token, uint256 amount);\n\n    // staking token address\n    address public stakingToken;\n    // staker token address\n    address public staker;\n    // UNIX time, UTC timestamp, unit second, type uint, consistent with block.timestamp\n    // Contract start time, that is the lock start time\n    uint256 public start;\n    // Lock-in period, for example: 4 years\n    uint256 public duration;\n    // Truncation time unit for each stage\n    uint256 public stageCliffUnit;\n    // Total release ratio\n    uint256 public totalShares = 100;\n    // staked token amount\n    uint256 public stakedAmount;\n\n    // Record the withdrawal amount of each currency\n    mapping (address => uint256) public released;\n\n    constructor (\n        address _stakingToken,\n        address _staker,\n        uint256 _start,\n        uint256 _duration,\n        uint256 _stageCliffUnit,\n        uint256 _stakedAmount\n    ) {\n        require(_stakingToken != address(0), \"TokenVesting: stakingToken is the zero address\");\n        require(_staker != address(0), \"TokenVesting: staker is the zero address\");\n        require(_start.add(_duration) > block.timestamp, \"TokenVesting: final time is before current time\");\n        require(_duration >= _stageCliffUnit, \"TokenVesting: Period is greater than unit time\");\n\n        stakingToken = _stakingToken;\n        staker = _staker;\n        start = _start;\n        duration = _duration;\n        stageCliffUnit = _stageCliffUnit;\n        stakedAmount = _stakedAmount;\n    }\n\n    // Is it time to release\n    function isToReleaseTime() public view returns (bool) {\n        return block.timestamp >= start.add(duration);\n    }\n\n    // release token\n    function release(IERC20 token) public {\n        uint256 unreleased = releasableAmount(token);\n        require(unreleased > 0, \"TokenVesting: no tokens are due\");\n        released[address(token)] = released[address(token)].add(unreleased);\n        token.safeTransfer(staker, unreleased);\n        emit TokensReleased(address(token), unreleased);\n    }\n\n    // Calculate the number of tokens that can be release\n    function releasableAmount(IERC20 token) public view returns (uint256) {\n        return _vestedAmount(token).sub(released[address(token)]);\n    }\n\n    // Calculate the number of released tokens\n    function _vestedAmount(IERC20 token) private view returns (uint256) {\n        uint256 currentBalance = token.balanceOf(address(this));\n        uint256 totalBalance = currentBalance.add(released[address(token)]);\n\n        // Calculate the number of released tokens according to conditions\n        if (block.timestamp >= start.add(duration)) {\n            return totalBalance;\n        } else {\n            // Record the number of released tokens\n            uint256 vestedAmount = 0;\n            if (address(token) == stakingToken) {\n                totalBalance = totalBalance.sub(stakedAmount);\n            }\n            // Cumulative release time\n            uint256 cumulativeTime = start;\n            // Calculate the number of releases in each stage\n            uint256 vestCount = duration.div(stageCliffUnit);\n            for (uint256 i = 0; i < vestCount; i++) {\n                cumulativeTime = cumulativeTime.add(stageCliffUnit);\n                if (cumulativeTime > block.timestamp) {\n                    break;\n                }\n                vestedAmount = vestedAmount.add(totalBalance.div(vestCount));\n            }\n            return vestedAmount;\n        }\n    }\n}\n",
  "sourcePath": "/Users/blues/Workspaces/DaoswapDex/daoswapdex/core-staking/contracts/Staking/emission/TokenVesting.sol",
  "compiler": {
    "name": "solc",
    "version": "0.8.4+commit.c7e474f2.Emscripten.clang"
  },
  "schemaVersion": "3.4.3",
  "updatedAt": "2021-12-30T03:27:48.543Z",
  "devdoc": {
    "kind": "dev",
    "methods": {
      "owner()": {
        "details": "Returns the address of the current owner."
      },
      "renounceOwnership()": {
        "details": "Leaves the contract without owner. It will not be possible to call `onlyOwner` functions anymore. Can only be called by the current owner. NOTE: Renouncing ownership will leave the contract without an owner, thereby removing any functionality that is only available to the owner."
      },
      "transferOwnership(address)": {
        "details": "Transfers ownership of the contract to a new account (`newOwner`). Can only be called by the current owner."
      }
    },
    "version": 1
  },
  "userdoc": {
    "kind": "user",
    "methods": {},
    "version": 1
  }
}